S01A000041546D656761333238505F666163746F72792E7372656397
S11300000C9438000C9460000C9460000C94EB0485
S11300100C9413050C943B050C9460000C94600044
S11300200C9460000C9479080C9460000C945408AF
S11300300C9460000C9460000C9460000C946000BC
S11300400C942F080C9460000C9460000C946000D5
S11300500C9460000C9460000C9460000C9460009C
S11300600C9460000C9460006D05A8087405AF083A
S113007011241FBECFEFD8E0DEBFCDBF12E0A0E059
S1130080B1E0EAE0F0E202C005900D92AC38B107AD
S1130090D9F722E0ACE8B2E001C01D92A83DB20756
S11300A0E1F710E0C6E3D0E004C02197FE010E940E
S11300B0CF0EC433D107C9F70E949C090C94F60FE4
S11300C00C940000A0918C02B0918D02109769F0FD
S11300D0ED91FC91119712968D919C9113979093A9
S11300E08D0280938C020995EDCF0895CF93DF9311
S11300F0EC0184E090E00E94D50E009781F0FC01B1
S1130100D183C08320918C0230918D02338322836A
S113011090938D0280938C0280E090E002C081E095
S113012090E0DF91CF91089588E291E090938F025F
S113013080938E0208958AE008958FEF93E00895E6
S113014060E070E080EA90E408950F93FC018281FE
S1130150882309F44AC0663010F4982F01C090E057
S1130160911105C06E3018F0643108F4982F99236A
S1130170C9F1663008F06E50606460937C00EAE771
S1130180F0E08081806880838081806480838081C6
S113019081608083808182608083808184608083A9
S11301A020917A0030E040E050E060E070E080E0D0
S11301B090E004E00E94A70E217030E040E050E09F
S11301C060E070E080E090E0A0E00E94C30E41F3A4
S11301D0EAE7F0E0808180618083809178009091EB
S11301E0790005C080E090E002C080E090E00F91CB
S11301F008950E94A500BC0180E090E00E94910D4A
S113020020E030EC4FE754E40E94F00C08950E9483
S1130210F90020E030E040EA50E40E941F0E089507
S113022081E00895FC0182810895FC0162830895B0
S113023028E231E0FC0131832083089528E231E093
S1130240FC013183208363E070E00E94740C089504
S113025022E431E0FC0131832083128260E00E94B9
S1130260A500089580919102811112C081E992E064
S11302700E94760C892B61F08EE892E00E9428019E
S113028081E992E00E947F0C84E990E00E9476006C
S11302908EE892E008958CE591E090939A02809321
S11302A09902089581E00895FC0182810895FC017A
S11302B062830895640F711D81E06115744008F034
S11302C080E008950F93FB012FB330E040E050E04D
S11302D060E070E080E090E001E00E94A70E2170F1
S11302E030E040E050E060E070E080E090E0A0E0CA
S11302F00E94C30E49F7F2BDE1BD8FB381608FBB8D
S113030080B50F9108952CE531E0FC013183208301
S113031008952CE531E0FC013183208363E070E033
S11303200E94740C08950F93CF93DF93EB01E42F95
S11303302FB330E040E050E060E070E080E090E017
S113034001E00E94A70E217030E040E050E060E040
S113035070E080E090E0A0E00E94C30E49F7D2BDB7
S1130360C1BDE0BD0E94720C8FB384608FBB8FB39C
S113037082608FBB0E94700CDF91CF910F91089522
S113038020E731E0FC0131832083128208958091BB
S11303909C02811112C08CE992E00E94760C892B98
S11303A061F089E992E00E94C0018CE992E00E9428
S11303B07F0C8BE491E00E94760089E992E0089535
S11303C021E0FC0182819381892B09F420E0822FB2
S11303D008950F93DC0114960C9114971296ED91E5
S11303E0FC9113970480F581E02D208130E040E0FA
S11303F050E060E070E080E090E00E94A70E822F61
S113040081700F9108950F936623C9F0DC0114964F
S11304100C9114971296ED91FC9113970280F3813D
S1130420E02DA08121E030E040E050E060E070E0A9
S113043080E090E00E948C0E2A2B208315C0FC01E2
S113044004810280F381E02DA281B381EC9121E04B
S113045030E040E050E060E070E080E090E00E9436
S11304608C0E2095E223EC930F9108950F93DC01F9
S113047014960C9114971296ED91FC9113970480A5
S1130480F581E02DA08121E030E040E050E060E023
S113049070E080E090E00E948C0E2A2B20830F9164
S11304A008950F936623B1F0DC011296ED91FC914F
S11304B013970085E8E6F0E0A08121E030E040E019
S11304C050E060E070E080E090E00E948C0E2A2B07
S11304D0208316C0DC011296ED91FC9113970085E0
S11304E0A8E6B0E0EC9121E030E040E050E060E0CC
S11304F070E080E090E00E948C0E2095E223EC9363
S11305000F9108950F93CF93DF93662349F1EC0184
S11305100E94700CEA81FB810085E8E6F0E0A0818E
S113052021E030E040E050E060E070E080E090E006
S11305300E948C0E2A2B20830C81EA81FB81068089
S1130540F781E02DA08121E030E040E050E060E060
S113055070E080E090E00E948C0E2A2B208318C06B
S1130560DC0114960C9114971296ED91FC9113975B
S1130570A681B781EC9121E030E040E050E060E0FA
S113058070E080E090E00E948C0E2095E223EC93D2
S1130590DF91CF910F9108954F925F926F927F9266
S11305A08F929F92AF92BF92CF92DF92EF92FF927F
S11305B00F93CF93DF93EC0188E991E099838883CB
S11305C00C81EA81FB81A081B181EC9121E030E0D2
S11305D040E050E060E070E080E090E00E948C0E2B
S11305E02095E223EC930C81EA81FB81A281B38103
S11305F0EC9121E030E040E050E060E070E080E029
S113060090E00E948C0E2095E223EC930C81E4EAA6
S1130610F2E0408051806280738021E030E040E06D
S113062050E060E070E080E090E00E948C0E822E4A
S1130630932EA42EB52E80949094A094B0948420EC
S11306409520A620B72080829182A282B38260E0A6
S1130650CE010E9482021B821A8284E891E099836F
S11306608883DF91CF910F91FF90EF90DF90CF902F
S1130670BF90AF909F908F907F906F905F904F90BE
S11306800895CF93DF93EC010E94CC0265E070E003
S1130690CE010E94740CDF91CF910895883020F030
S11306A08E3020F090E003C090E001C091E0911101
S11306B00FC08E3018F0843108F491E091110BC012
S11306C0863008F491E0992349F086E091E008959A
S11306D08AE191E0089580E191E0089580E090E05E
S11306E008954F925F926F927F928F929F92AF92F2
S11306F0BF92CF92DF92EF92FF920F93E82F843153
S1130700D8F46330D8F48431A8F48090A402909093
S1130710A502A090A602B090A702282D392D4A2D3B
S11307205B2D60E070E080E090E00E2F0E94A70E49
S1130730217005C020E003C021E001C021E02111A7
S113074028C00E2F8E2F0E944E03FC01009721F12A
S1130750A4EAB2E04D905D906D907C90139721E0F7
S113076030E040E050E060E070E080E090E00E9423
S11307708C0E822E932EA42EB52E84289528A6287E
S1130780B7288D929D92AD92BC9213978E2F9F2F76
S113079004C080E090E001C09F2F0F91FF90EF9084
S11307A0DF90CF90BF90AF909F908F907F906F908D
S11307B05F904F9008950F936130C9F4DC01149653
S11307C00C9114971296ED91FC9113970280F3818A
S11307D0E02DA08121E030E040E050E060E070E0F6
S11307E080E090E00E948C0E2A2B208317C0623098
S11307F0A9F4FC0104810280F381E02D0190F081D1
S1130800E02DA08121E030E040E050E060E070E0C5
S113081080E090E00E948C0E2A2B20830F91089593
S113082026E0FC0111922A95E9F708950E9410042C
S1130830089581E06330710508F080E00895EF9237
S1130840FF920F931F93CF93DF938C017B01EA01F7
S1130850BA010E941904882321F0E114F10419F467
S113086003C081E001C080E0811108C0CC0FDD1F0E
S1130870C00FD11FF982E88281E001C080E0DF91DE
S1130880CF911F910F91FF90EF900895DC01129684
S1130890ED91FC9113970280F381E02D908185B155
S11308A0981307C040E050E088EA92E00E941F04D9
S11308B00895908188B1981307C041E050E088EA18
S11308C092E00E941F04089590818BB1981306C092
S11308D042E050E088EA92E00E941F040895EF92FB
S11308E0FF920F931F93CF93DF938C01C62FD42FC6
S11308F0790188E991E0F80191838083642F8C2F3A
S11309000E9471039C01F80193838283C83020F014
S1130910CE3020F090E003C090E001C091E0992334
S113092011F0C8500FC0CE3018F0C43108F491E073
S1130930992311F0CE5006C0C63008F491E091110D
S113094001C0CFEFF801C483232B59F06D2FC801E8
S11309500E94DB03E114F10421F0B701C8010E94F5
S11309604604DF91CF911F910F91FF90EF9008956E
S1130970660F771F860F971FFC012081318181E06C
S1130980232B09F480E00895EF92FF921F93CF93F5
S1130990DF937C01EB010E941904182F882341F096
S11309A0BE01C7010E94B804882319F010E001C0F9
S11309B011E0111109C0CC0FDD1FCE0DDF1DE88140
S11309C0F981099581E001C080E0DF91CF911F9109
S11309D0FF90EF9008951F920F920FB60F9211247B
S11309E02F933F934F935F936F937F938F939F9333
S11309F0AF93BF93EF93FF9360E070E088EA92E0D7
S1130A000E94C404FF91EF91BF91AF919F918F9188
S1130A107F916F915F914F913F912F910F900FBEF6
S1130A200F901F9018951F920F920FB60F921124DA
S1130A302F933F934F935F936F937F938F939F93E2
S1130A40AF93BF93EF93FF9361E070E088EA92E085
S1130A500E94C404FF91EF91BF91AF919F918F9138
S1130A607F916F915F914F913F912F910F900FBEA6
S1130A700F901F9018951F920F920FB60F9211248A
S1130A802F933F934F935F936F937F938F939F9392
S1130A90AF93BF93EF93FF9362E070E088EA92E034
S1130AA00E94C404FF91EF91BF91AF919F918F91E8
S1130AB07F916F915F914F913F912F910F900FBE56
S1130AC00F901F901895019739F46F3F7F4F21F4D1
S1130AD088EA92E00E94160408956FEF7FEF81E0A8
S1130AE090E00E94630508956FEF7FEF80E090E04F
S1130AF00E94630508950F93E82F2091C00030E011
S1130B0040E050E060E070E080E090E005E00E94AA
S1130B10A70E217030E040E050E060E070E080E03B
S1130B2090E0A0E00E94C30E41F3E093C6000F9151
S1130B3008958CEA91E09093AF028093AE020895F9
S1130B4060E875E280E090E0089581E00895FC019A
S1130B5082810895FC0162830895CF93DF93EB01B2
S1130B60FC018281882369F08881882351F00E94E6
S1130B707B0588818D3019F48AE00E947B052196DB
S1130B80F3CFDF91CF9108952CEA31E0FC0131835A
S1130B90208308952CEA31E0FC013183208363E053
S1130BA070E00E94740C08952EEB31E0FC01318357
S1130BB020831282E1ECF0E0808188608083E2ECA3
S1130BC0F0E080818260808380818460808387E616
S1130BD090E09093C5008093C4008DE08093C6009C
S1130BE008958091B102811112C081EB92E00E94BC
S1130BF0760C892B61F08EEA92E00E94D40581EB99
S1130C0092E00E947F0C89E995E00E9476008EEACA
S1130C1092E0089521E0FC0182819381892B09F4FB
S1130C2020E0822F0895FC01808508950F931F937F
S1130C30FC019085992381F0A281B3810D911D91CE
S1130C402D913C9144815581668177810417150764
S1130C502607370718F403C091E001C090E0911112
S1130C6009C00280F381E02D108211821282138266
S1130C7081E001C080E01F910F910895FC0164811F
S1130C807581868197810E94910D2FE632E143E0C0
S1130C905EE30E941F0E20E030E040E05FE30E942C
S1130CA0840C0E94620D0895DC011296ED91FC9172
S1130CB013970480F581E02D108218961C920895F4
S1130CC0CF92DF92EF92FF92CF93DF93EC016A0110
S1130CD07B01452B462B472B11F40E945406C1146B
S1130CE0D104E104F10499F0C701B6010E94910D09
S1130CF02FE632E143E05EE30E94F00C20E030E0B6
S1130D0040E05FE30E94840C0E94620D03C060E037
S1130D1070E0CB016C837D838E839F83DF91CF91C1
S1130D20FF90EF90DF90CF9008950F93CF93DF93D0
S1130D30FC014481558166817781452B462B472BE5
S1130D40C1F0EC010E94700CEA81FB8106810480F1
S1130D50F581E02DA08121E030E040E050E060E04A
S1130D6070E080E090E00E948C0E2A2B208381E0CA
S1130D708887DF91CF910F910895FC01208522236C
S1130D8019F00E94540608950E9495060895DC0106
S1130D901296ED91FC9113971082118212821382A4
S1130DA00E9495060895FC018085882379F00280CD
S1130DB0F381E02D40815181628173814F5F5F4FE8
S1130DC06F4F7F4F408351836283738308950097ED
S1130DD0D9F0DC011496ED91FC91159710821796C9
S1130DE02C91213031F018F0223051F00BC015BC99
S1130DF009C010928100109289001092880002C0EC
S1130E001092B1000E946D0F0895CF93C82F88E00F
S1130E1090E00E94D50E0097A9F1C13069F018F056
S1130E20C230D9F024C02EE630E0FC01358324839F
S1130E30168222E025BD20C02FE630E0FC01358378
S1130E40248321E026832AE02093810020E031E0FE
S1130E5030938900209388000FC020E730E0FC0124
S1130E6035832483168222E02093B10005C00E94BA
S1130E706D0F80E090E006C0FC01108211821282A6
S1130E801382C783CF91089580E0833078F4E82FEC
S1130E90F0E0EE0FFF1FE154FD4F20813181232B41
S1130EA019F40E94050708958F5FEFCF80E090E06A
S1130EB00895DC011296ED91FC911397478150E05F
S1130EC089EB92E00E941F0408958F929F92AF9243
S1130ED0BF92CF92DF92EF92FF920F93CF93DF9363
S1130EE0EC014A015B0179018AEE91E099838883E0
S1130EF00E9444076C019B838A8381149104A1049A
S1130F00B10499F0C501B4010E94910D2FE632E1BC
S1130F1043E05EE30E94F00C20E030E040E05FE359
S1130F200E94840C0E94620D03C060E070E0CB015B
S1130F306C837D838E839F831886C114D10499F0BA
S1130F40D6011796EC91F0E0EE0FFF1FE154FD4F30
S1130F50D183C083B701CE010E945907002319F041
S1130F60CE010E949506DF91CF910F91FF90EF90F3
S1130F70DF90CF90BF90AF909F908F9008950F9384
S1130F801F93CF93DF938C01EB010E9419048823F4
S1130F9031F0CC0FDD1FC00FD11F19821882DF91F1
S1130FA0CF911F910F910895DC011296ED91FC9160
S1130FB01397678170E089EB92E00E94BF07089560
S1130FC0CF93DF93EC018AEE91E099838883CE017D
S1130FD00E94D4078A819B81DC011796EC91F0E092
S1130FE0EE0FFF1FE154FD4F118210820E94E706AD
S1130FF080ED91E099838883DF91CF910895CF9319
S1131000DF93EC010E94E00769E070E0CE010E94EA
S1131010740CDF91CF9108950F931F93CF93833076
S1131020D0F4E82FF0E0EE0FFF1FE154FD4F0081F4
S113103011810115110579F0C82FC8010E94D3064A
S1131040C8010E941606882331F06C2F70E089EBEA
S113105092E00E94C404CF911F910F9108951F92B2
S11310600F920FB60F9211242F933F934F935F93D8
S11310706F937F938F939F93AF93BF93EF93FF935C
S113108080E00E940C08FF91EF91BF91AF919F9176
S11310908F917F916F915F914F913F912F910F901D
S11310A00FBE0F901F9018951F920F920FB60F92BC
S11310B011242F933F934F935F936F937F938F9359
S11310C09F93AF93BF93EF93FF9381E00E940C082B
S11310D0FF91EF91BF91AF919F918F917F916F910C
S11310E05F914F913F912F910F900FBE0F901F90E2
S11310F018951F920F920FB60F9211242F933F93BE
S11311004F935F936F937F938F939F93AF93BF930B
S1131110EF93FF9382E00E940C08FF91EF91BF913F
S1131120AF919F918F917F916F915F914F913F917B
S11311302F910F900FBE0F901F901895019739F4BF
S11311406F3F7F4F21F489EB92E00E9416040895CB
S11311506FEF7FEF81E090E00E949E0808956FEFAB
S11311607FEF80E090E00E949E080895811521E0C1
S1131170920751F170F480329105A1F118F440976F
S1131180E9F02EC080349105D9F080389105D1F072
S113119027C0811528E09207E9F040F4811522E088
S11311A09207A1F08115944099F01AC0811520E1AD
S11311B0920791F08115904289F012C080E0089561
S11311C082E0089583E0089584E0089585E0089519
S11311D086E0089587E0089580E2089581E2089505
S11311E08FEF089581E0089584E092E09093C60221
S11311F08093C502089581E00895FC0184810895D7
S1131200FC0182819381089524E032E0FC01318362
S11312102083089524E032E0FC013183208365E0DB
S113122070E00E94740C08950E94720CA89584B713
S1131230877F84BF0E94700C0895CF93C62F0E94AD
S113124014090E94720CE0E6F0E0808180618083E2
S1131250808188608083CC2321F0808188608083B2
S113126005C0E0E6F0E08081877F80830E94700CF7
S1131270CF910895FF920F931F93CF93DF93613023
S113128020E27207B8F4EB018C01CB010E94B6088E
S1131290F82E0E94720CE0E6F0E080818861808381
S11312A0F0820E94700C0E94700CF801D383C283F8
S11312B081E001C080E0DF91CF911F910F91FF90F9
S11312C0089526E132E0FC013183208313821282E7
S11312D0148260E074E00E943A0908958091CA0281
S11312E0811112C08AEC92E00E94760C892B61F085
S11312F085EC92E00E9461098AEC92E00E947F0CE6
S113130084EF98E00E94760085EC92E00895809145
S1131310D2029091D3020E94830A08958091D2024E
S11313209091D3020E945C0A08958091D202909118
S1131330D3020E94540B08956F927F928F929F92D2
S1131340AF92BF92CF92DF92EF92FF920F931F93CF
S1131350CF93DF93CDB7DEB7AC970FB6F894DEBF6B
S11313600FBECDBF20E030E042E068E0CE01019640
S11313700E946F0425E939E041E06DE0CE01069654
S11313800E946F0400E02EE839E04CE251E060E096
S113139070E0CE010B960E94650727E839E044E629
S11313A050E060E070E0CE0144960E9465070E9420
S11313B0F1057C010E946E096C010E94C7015C0169
S11313C00E9432013E012DE1620E711C4C018E011E
S11313D00C5E1F4F9E01255F3F4FAE014A5F5F4F7A
S11313E0BE016F5F7F4FC3010E94030C7092D30252
S11313F06092D202C3010E94980AC3010E94260A85
S1131400C8010E94E007CE010B960E94E007CE01BE
S113141006960E94CC02CE0101960E94CC0280E086
S113142090E0AC960FB6F894DEBF0FBECDBFDF914F
S1131430CF911F910F91FF90EF90DF90CF90BF90CD
S1131440AF909F908F907F906F900895CF93DF938C
S1131450EC0188819981DC01ED91FC910084F18596
S1131460E02D60E009958A819B81DC01ED91FC917E
S11314700484F585E02D60E009958C819D81DC0173
S1131480ED91FC910088F189E02D09958E819F8171
S1131490DC01ED91FC910088F189E02D09958A85A4
S11314A09B85DC01ED91FC910084F185E02D60E0E9
S11314B00995DF91CF910895CF93DF93EC018C814F
S11314C09D81DC01ED91FC910088F189E02D099565
S11314D08A819B81DC01ED91FC910684F785E02DE6
S11314E061E00995DF91CF9108956115710549F087
S11314F0DC01ED91FC910484F585E02D099581E0F2
S1131500089580E00895CF93DF93EC0164E272E0E4
S1131510888599850E94750A88819981DC01ED91FD
S1131520FC910284F385E02D0995DF91CF91089514
S1131530EC0167E372E0888599850E94750A8A85C3
S11315409B85DC01ED91FC910484F585E02D0995E2
S1131550F6CFDF92EF92FF920F931F93CF93DF9317
S1131560EC018B017A01E881F9810284F385E02D95
S113157041E00995D82E882359F0E881F981068045
S1131580F781E02DCE010995882321F0D12C02C0EA
S1131590DD24D394D1101EC0D1101EC0E881F9817E
S11315A00484F585E02D6D2D70E0D7014C9150E059
S11315B0CB01880F991F880F991F880F991F02C0AC
S11315C0559547958A95E2F7600F711FCE010995ED
S11315D0D394E2CF80E001C081E0DF91CF911F91ED
S11315E00F91FF90EF90DF9008950F931F93CF9387
S11315F0DF931F92CDB7DEB78C01DC0116968D9177
S11316009C911797DC01ED91FC910680F781E02D08
S113161009958983AE014F5F5F4F60E070E0F80188
S1131620848595850E94A90A0F90DF91CF911F911F
S11316300F910895CF93DF93EC016CE472E08885F9
S113164099850E94750A8E819F81DC01ED91FC9140
S11316500288F389E02D0995CE010E94F50A8E8156
S11316609F81DC01ED91FC910680F781E02D0995C5
S1131670882339F06DE572E0888599850E94750AA2
S113168010C064E772E0888599850E94750A888194
S11316909981DC01ED91FC910084F185E02D60E0FD
S11316A00995DF91CF910895CF93DF93EC018A815F
S11316B09B81DC01ED91FC910684F785E02D60E0CF
S11316C009958C819D81DC01ED91FC910684F7855F
S11316D0E02D09958A819B81DC01ED91FC910680C6
S11316E0F781E02D0995882319F0CE010E941A0B89
S11316F0DF91CF910895AF92BF92DF92EF92FF9264
S11317000F931F93CF93DF93EC017B018A01E88150
S1131710F9810284F385E02D41E00995D82E8823D0
S113172059F0E881F9810680F781E02DCE01099511
S1131730882321F0D12C02C0DD24D394D11022C0FF
S1131740F8011082D11020C0AD2CB12CB7016A0D64
S11317507B1DE881F9810684F785E02DCE0109958A
S113176090E0AA0CBB1CAA0CBB1CAA0CBB1C02C09C
S1131770880F991FAA94E2F7F8019081892B80833E
S1131780D394E0CF80E001C081E0DF91CF911F913D
S11317900F91FF90EF90DF90BF90AF900895CF939B
S11317A0DF931F92CDB7DEB71982AE014F5F5F4F53
S11317B060E070E0FC01848595850E947B0B8823A2
S11317C029F0998181E0913009F080E00F90DF9158
S11317D0CF910895CF93DF93EC010E94CF0B882320
S11317E079F08E819F81DC01ED91FC910684F7856F
S11317F0E02D09956DE572E0888599850E94750A4A
S1131800DF91CF9108956F927F928F929F92AF92C2
S1131810BF92CF92DF92EF92FF920F931F93CF93D9
S1131820DF93CDB7DEB73C01CA01D30111967C9397
S11318306E9313965C934E93129715963C932E9346
S1131840149717961C930E9316971996FC92EE9282
S113185018971B96DC92CE921A971D96BC92AE9264
S11318601C971F969C928E921E97DA01ED91FC9123
S11318700484F585E02D61E00995F3018085918567
S1131880DC01ED91FC910284F385E02D61E0099582
S1131890F30182859385DC01ED91FC910084F1854F
S11318A0E02D61E00995F30184859585DC01ED91D6
S11318B0FC910084F185E02D61E00995C3010E944B
S11318C0EA0BDF91CF911F910F91FF90EF90DF9082
S11318D0CF90BF90AF909F908F907F906F9008951E
S11318E078940895F894089508950895FC0181E08A
S11318F090E02081222311F080E090E0089521E01F
S1131900FC01208308955058BB27AA270E949B0CF2
S11319100C94E50D0E94D70D38F00E94DE0D20F0E6
S113192039F49F3F19F426F40C94D40D0EF4E09589
S1131930E7FB0C94CE0DE92F0E94F60D58F3BA176D
S1131940620773078407950720F079F4A6F50C94D1
S1131950180E0EF4E0950B2EBA2FA02D0B01B90131
S113196090010C01CA01A0011124FF27591B99F011
S1131970593F50F4503E68F11A16F040A22F232F1D
S1131980342F4427585FF3CF469537952795A7956D
S1131990F0405395C9F77EF41F16BA0B620B730B14
S11319A0840BBAF09150A1F0FF0FBB1F661F771F85
S11319B0881FC2F70EC0BA0F621F731F841F48F43A
S11319C0879577956795B795F7959E3F08F0B0CFC3
S11319D09395880F08F09927EE0F979587950895AA
S11319E00E94040D0C94E50D0E94DE0D58F00E9437
S11319F0D70D40F029F45F3F29F00C94CE0D51111E
S1131A000C94190E0C94D40D0E94F60D68F39923CE
S1131A10B1F3552391F3951B550BBB27AA276217E6
S1131A207307840738F09F5F5F4F220F331F441FF3
S1131A30AA1FA9F335D00E2E3AF0E0E832D0915027
S1131A405040E695001CCAF72BD0FE2F29D0660F14
S1131A50771F881FBB1F261737074807AB07B0E857
S1131A6009F0BB0B802DBF01FF2793585F4F3AF05D
S1131A709E3F510578F00C94CE0D0C94190E5F3FE7
S1131A80E4F3983ED4F3869577956795B795F795E3
S1131A909F5FC9F7880F911D9695879597F90895CB
S1131AA0E1E0660F771F881FBB1F62177307840767
S1131AB0BA0720F0621B730B840BBA0BEE1F88F776
S1131AC0E09508950E94FE0D88F09F5798F0B92F75
S1131AD09927B751B0F0E1F0660F771F881F991F5F
S1131AE01AF0BA95C9F714C0B13091F00E94180EDB
S1131AF0B1E008950C94180E672F782F8827B85FEB
S1131B0039F0B93FCCF3869577956795B395D9F7B6
S1131B103EF490958095709561957F4F8F4F9F4FC0
S1131B200895E89409C097FB3EF4909580957095CC
S1131B3061957F4F8F4F9F4F9923A9F0F92F96E915
S1131B40BB279395F695879577956795B795F1118A
S1131B50F8CFFAF4BB0F11F460FF1BC06F5F7F4F27
S1131B608F4F9F4F16C0882311F096E911C0772339
S1131B7021F09EE8872F762F05C0662371F096E842
S1131B80862F70E060E02AF09A95660F771F881F11
S1131B90DAF7880F9695879597F9089597F99F67CF
S1131BA080E870E060E008959FEF80EC08950024E1
S1131BB00A941616170618060906089500240A94AE
S1131BC012161306140605060895092E0394000C34
S1131BD011F4882352F0BB0F40F4BF2B11F460FFC3
S1131BE004C06F5F7F4F8F4F9F4F089557FD9058EC
S1131BF0440F551F59F05F3F71F04795880F97FBCD
S1131C00991F61F09F3F79F0879508951216130686
S1131C101406551FF2CF4695F1DF08C016161706B5
S1131C201806991FF1CF86957105610508940895EA
S1131C30E894BB2766277727CB0197F908950E947C
S1131C40320E0C94E50D0E94D70D38F00E94DE0D83
S1131C5020F0952311F00C94CE0D0C94D40D112486
S1131C600C94190E0E94F60D70F3959FC1F3950F15
S1131C7050E0551F629FF001729FBB27F00DB11D0C
S1131C80639FAA27F00DB11DAA1F649F6627B00D9C
S1131C90A11D661F829F2227B00DA11D621F739F85
S1131CA0B00DA11D621F839FA00D611D221F749F93
S1131CB03327A00D611D231F849F600D211D822FDA
S1131CC0762F6A2F11249F5750409AF0F1F0882301
S1131CD04AF0EE0FFF1FBB1F661F771F881F91502E
S1131CE05040A9F79E3F510580F00C94CE0D0C9402
S1131CF0190E5F3FE4F3983ED4F386957795679584
S1131D00B795F795E7959F5FC1F7FE2B880F911D57
S1131D109695879597F908950F93083090F0982F2A
S1131D20872F762F652F542F432F322F22270850C9
S1131D30F4CF220F331F441F551F661F771F881FC0
S1131D40991F0A95B2F70F91089597FB10F816940E
S1131D5000080F93083098F00850232F342F452F94
S1131D60562F672F782F892F902DF4CF05949795B0
S1131D7087957795679557954795379527950A954C
S1131D80AAF70F9108950024A7FD00942A1730059F
S1131D904005500560057005800590050895EE0F17
S1131DA0FF1F0590F491E02D09940F931F93CF9397
S1131DB0DF938230910510F482E090E0E091D60246
S1131DC0F091D70220E030E0A0E0B0E0309719F1C4
S1131DD0408151810281138148175907C8F0841743
S1131DE0950769F4109731F012960C931297139695
S1131DF01C9327C00093D6021093D70222C021154A
S1131E00310519F04217530718F49A01BD01EF0187
S1131E10DF01F801DBCF21153105F9F0281B390B5F
S1131E202430310580F48A819B816115710521F08C
S1131E30FB019383828304C09093D7028093D602DC
S1131E40FE01329644C0FE01E20FF31F8193919389
S1131E5022503109398328833AC02091D402309129
S1131E60D502232B41F420910201309103013093D8
S1131E70D5022093D4022091000130910101211553
S1131E80310541F42DB73EB740910401509105014D
S1131E90241B350BE091D402F091D502E217F3072D
S1131EA0A0F42E1B3F0B2817390778F0AC014E5FC6
S1131EB05F4F2417350748F04E0F5F1F5093D5022C
S1131EC04093D4028193919302C0E0E0F0E0CF010B
S1131ED0DF91CF911F910F910895CF93DF930097D6
S1131EE009F481C0FC01329713821282A091D602B8
S1131EF0B091D702109781F420813181820F931F12
S1131F002091D4023091D5022817390751F5F09366
S1131F10D502E093D40267C0ED0120E030E0CE1793
S1131F20DF0740F44A815B819E0141155105F1F0C0
S1131F30EA01F5CFD383C28340815181840F951F79
S1131F40C817D90759F488819981840F951F02967F
S1131F50918380838A819B819383828321153105B8
S1131F6029F4F093D702E093D6023DC0E901FB8344
S1131F70EA8349915991C40FD51FEC17FD0761F409
S1131F8080819181840F951F0296E901998388834A
S1131F90828193819B838A83E0E0F0E012968D91A5
S1131FA09C911397009719F0FD01DC01F7CF8D91F7
S1131FB09C9111979D012E5F3F4F820F931F20919B
S1131FC0D4023091D5022817390769F4309729F4DF
S1131FD01092D7021092D60202C013821282B093DA
S1131FE0D502A093D402DF91CF9108950E9462009C
S1131FF010E0C6E3D0E004C0FE010E94CF0E21969B
S10D2000C833D107C9F7F894FFCFE5
S113200A0000D80220002A002B0029006D000202D9
S113201A2700280026006C00010124002500230063
S113202A6B0000000000000000000000750C750C35
S113203A750C750C750C750C750C750C750C00000B
S113204A000018011E019B009D00A000A500F900D4
S113205A0701100112011501000000000000000030
S113206A750C750C750C750C750C750C000000005C
S113207A830189015201540157015A0193016201F2
S113208A0000000000000000750C750C750C750C3E
S113209A750C750C00000000CC024103E001E90153
S11320AA030236028202510200000000000000000E
S11320BA750C750C750C750C750C00000000C405C4
S11320CACA05A005A505A705AA05AD0500000000D7
S11320DA00000000750C750C750C750C750C750CEC
S11320EA750C750C750C00000000E007FF070A0662
S11320FA130616063E06600695065406BD06C7066E
S113210A0000000000000000750C750C750C750CBD
S113211A750C0000000004090A09FB08FD081D09E2
S113212A00091409546F67676C696E6720746865DF
S113213A204C4544210A0052756E6E696E672074FC
S113214A68652073797374656D210A004275747425
S113215A6F6E2070726573736564210A00546F6729
S113216A676C652074696D657220656E61626C6561
S113217A64210A00546F67676C652074696D65721F
S10F218A2064697361626C6564210A00C2
S9030000FC
