S01A000041546D656761333238505F666163746F72792E7372656397
S11300000C9438000C9460000C9460000C94EB0485
S11300100C9413050C943B050C9460000C94600044
S11300200C9460000C9479080C9460000C945408AF
S11300300C9460000C9460000C9460000C946000BC
S11300400C942F080C9460000C9460000C946000D5
S11300500C9460000C9460000C9460000C9460009C
S11300600C9460000C9460006D05A8087405AF083A
S113007011241FBECFEFD8E0DEBFCDBF12E0A0E059
S1130080B1E0E0EEF6E202C005900D92AE3AB1079F
S1130090D9F722E0AEEAB2E001C01D92AA3FB2074E
S11300A0E1F710E0C6E3D0E004C02197FE010E940E
S11300B0420FC433D107C9F70E94FF090C9461139E
S11300C00C940000A091AE02B091AF02109769F0B9
S11300D0ED91FC91119712968D919C9113979093A9
S11300E0AF028093AE020995EDCF0895CF93DF93CD
S11300F0EC0184E090E00E94480F009781F0FC013D
S1130100D183C0832091AE023091AF023383228326
S11301109093AF028093AE0280E090E002C081E051
S113012090E0DF91CF91089588E291E09093B1023D
S11301308093B00208958AE008958FEF93E00895C4
S113014060E070E080EA90E408950F93FC018281FE
S1130150882309F44AC0663010F4982F01C090E057
S1130160911105C06E3018F0643108F4982F99236A
S1130170C9F1663008F06E50606460937C00EAE771
S1130180F0E08081806880838081806480838081C6
S113019081608083808182608083808184608083A9
S11301A020917A0030E040E050E060E070E080E0D0
S11301B090E004E00E941A0F217030E040E050E02B
S11301C060E070E080E090E0A0E00E94360F41F330
S11301D0EAE7F0E0808180618083809178009091EB
S11301E0790005C080E090E002C080E090E00F91CB
S11301F008950E94A500BC0180E090E00E94040ED6
S113020020E030EC4FE754E40E94630D08950E940F
S1130210F90020E030E040EA50E40E94920E089594
S113022081E00895FC0182810895FC0162830895B0
S113023028E231E0FC0131832083089528E231E093
S1130240FC013183208363E070E00E94E70C089591
S113025022E431E0FC0131832083128260E00E94B9
S1130260A50008958091B302811112C083EB92E03E
S11302700E94E90C892B61F080EB92E00E94280136
S113028083EB92E00E94F20C84E990E00E947600F5
S113029080EB92E008958CE591E09093BC0280930A
S11302A0BB02089581E00895FC0182810895FC0158
S11302B062830895640F711D81E06115744008F034
S11302C080E008950F93FB012FB330E040E050E04D
S11302D060E070E080E090E001E00E941A0F21707D
S11302E030E040E050E060E070E080E090E0A0E0CA
S11302F00E94360F49F7F2BDE1BD8FB381608FBB19
S113030080B50F9108952CE531E0FC013183208301
S113031008952CE531E0FC013183208363E070E033
S11303200E94E70C08950F93CF93DF93EB01E42F22
S11303302FB330E040E050E060E070E080E090E017
S113034001E00E941A0F217030E040E050E060E0CC
S113035070E080E090E0A0E00E94360F49F7D2BD43
S1130360C1BDE0BD0E94E50C8FB384608FBB8FB329
S113037082608FBB0E94E30CDF91CF910F910895AF
S113038020E731E0FC0131832083128208958091BB
S1130390BE02811112C08EEB92E00E94E90C892BFF
S11303A061F08BEB92E00E94C0018EEB92E00E9420
S11303B0F20C8BE491E00E9476008BEB92E00895BE
S11303C021E0FC0182819381892B09F420E0822FB2
S11303D008950F93DC0114960C9114971296ED91E5
S11303E0FC9113970480F581E02D208130E040E0FA
S11303F050E060E070E080E090E00E941A0F822FED
S113040081700F9108950F936623C9F0DC0114964F
S11304100C9114971296ED91FC9113970280F3813D
S1130420E02DA08121E030E040E050E060E070E0A9
S113043080E090E00E94FF0E2A2B208315C0FC016F
S113044004810280F381E02DA281B381EC9121E04B
S113045030E040E050E060E070E080E090E00E9436
S1130460FF0E2095E223EC930F9108950F93DC0186
S113047014960C9114971296ED91FC9113970480A5
S1130480F581E02DA08121E030E040E050E060E023
S113049070E080E090E00E94FF0E2A2B20830F91F1
S11304A008950F936623B1F0DC011296ED91FC914F
S11304B013970085E8E6F0E0A08121E030E040E019
S11304C050E060E070E080E090E00E94FF0E2A2B94
S11304D0208316C0DC011296ED91FC9113970085E0
S11304E0A8E6B0E0EC9121E030E040E050E060E0CC
S11304F070E080E090E00E94FF0E2095E223EC93F0
S11305000F9108950F93CF93DF93662349F1EC0184
S11305100E94E30CEA81FB810085E8E6F0E0A0811B
S113052021E030E040E050E060E070E080E090E006
S11305300E94FF0E2A2B20830C81EA81FB81068016
S1130540F781E02DA08121E030E040E050E060E060
S113055070E080E090E00E94FF0E2A2B208318C0F8
S1130560DC0114960C9114971296ED91FC9113975B
S1130570A681B781EC9121E030E040E050E060E0FA
S113058070E080E090E00E94FF0E2095E223EC935F
S1130590DF91CF910F9108954F925F926F927F9266
S11305A08F929F92AF92BF92CF92DF92EF92FF927F
S11305B00F93CF93DF93EC0188E991E099838883CB
S11305C00C81EA81FB81A081B181EC9121E030E0D2
S11305D040E050E060E070E080E090E00E94FF0EB8
S11305E02095E223EC930C81EA81FB81A281B38103
S11305F0EC9121E030E040E050E060E070E080E029
S113060090E00E94FF0E2095E223EC930C81E6EC2F
S1130610F2E0408051806280738021E030E040E06D
S113062050E060E070E080E090E00E94FF0E822ED7
S1130630932EA42EB52E80949094A094B0948420EC
S11306409520A620B72080829182A282B38260E0A6
S1130650CE010E9482021B821A8284E891E099836F
S11306608883DF91CF910F91FF90EF90DF90CF902F
S1130670BF90AF909F908F907F906F905F904F90BE
S11306800895CF93DF93EC010E94CC0265E070E003
S1130690CE010E94E70CDF91CF910895883020F0BD
S11306A08E3020F090E003C090E001C091E0911101
S11306B00FC08E3018F0843108F491E091110BC012
S11306C0863008F491E0992349F086E091E008959A
S11306D08AE191E0089580E191E0089580E090E05E
S11306E008954F925F926F927F928F929F92AF92F2
S11306F0BF92CF92DF92EF92FF920F93E82F843153
S1130700D8F46330D8F48431A8F48090C602909071
S1130710C702A090C802B090C902282D392D4A2DD5
S11307205B2D60E070E080E090E00E2F0E941A0FD5
S1130730217005C020E003C021E001C021E02111A7
S113074028C00E2F8E2F0E944E03FC01009721F12A
S1130750A6ECB2E04D905D906D907C90139721E0F3
S113076030E040E050E060E070E080E090E00E9423
S1130770FF0E822E932EA42EB52E84289528A6280B
S1130780B7288D929D92AD92BC9213978E2F9F2F76
S113079004C080E090E001C09F2F0F91FF90EF9084
S11307A0DF90CF90BF90AF909F908F907F906F908D
S11307B05F904F9008950F936130C9F4DC01149653
S11307C00C9114971296ED91FC9113970280F3818A
S11307D0E02DA08121E030E040E050E060E070E0F6
S11307E080E090E00E94FF0E2A2B208317C0623025
S11307F0A9F4FC0104810280F381E02D0190F081D1
S1130800E02DA08121E030E040E050E060E070E0C5
S113081080E090E00E94FF0E2A2B20830F91089520
S113082026E0FC0111922A95E9F708950E9410042C
S1130830089581E06330710508F080E00895EF9237
S1130840FF920F931F93CF93DF938C017B01EA01F7
S1130850BA010E941904882321F0E114F10419F467
S113086003C081E001C080E0811108C0CC0FDD1F0E
S1130870C00FD11FF982E88281E001C080E0DF91DE
S1130880CF911F910F91FF90EF900895DC01129684
S1130890ED91FC9113970280F381E02D908185B155
S11308A0981307C040E050E08AEC92E00E941F04D5
S11308B00895908188B1981307C041E050E08AEC14
S11308C092E00E941F04089590818BB1981306C092
S11308D042E050E08AEC92E00E941F040895EF92F7
S11308E0FF920F931F93CF93DF938C01C62FD42FC6
S11308F0790188E991E0F80191838083642F8C2F3A
S11309000E9471039C01F80193838283C83020F014
S1130910CE3020F090E003C090E001C091E0992334
S113092011F0C8500FC0CE3018F0C43108F491E073
S1130930992311F0CE5006C0C63008F491E091110D
S113094001C0CFEFF801C483232B59F06D2FC801E8
S11309500E94DB03E114F10421F0B701C8010E94F5
S11309604604DF91CF911F910F91FF90EF9008956E
S1130970660F771F860F971FFC012081318181E06C
S1130980232B09F480E00895EF92FF921F93CF93F5
S1130990DF937C01EB010E941904182F882341F096
S11309A0BE01C7010E94B804882319F010E001C0F9
S11309B011E0111109C0CC0FDD1FCE0DDF1DE88140
S11309C0F981099581E001C080E0DF91CF911F9109
S11309D0FF90EF9008951F920F920FB60F9211247B
S11309E02F933F934F935F936F937F938F939F9333
S11309F0AF93BF93EF93FF9360E070E08AEC92E0D3
S1130A000E94C404FF91EF91BF91AF919F918F9188
S1130A107F916F915F914F913F912F910F900FBEF6
S1130A200F901F9018951F920F920FB60F921124DA
S1130A302F933F934F935F936F937F938F939F93E2
S1130A40AF93BF93EF93FF9361E070E08AEC92E081
S1130A500E94C404FF91EF91BF91AF919F918F9138
S1130A607F916F915F914F913F912F910F900FBEA6
S1130A700F901F9018951F920F920FB60F9211248A
S1130A802F933F934F935F936F937F938F939F9392
S1130A90AF93BF93EF93FF9362E070E08AEC92E030
S1130AA00E94C404FF91EF91BF91AF919F918F91E8
S1130AB07F916F915F914F913F912F910F900FBE56
S1130AC00F901F901895019739F46F3F7F4F21F4D1
S1130AD08AEC92E00E94160408956FEF7FEF81E0A4
S1130AE090E00E94630508956FEF7FEF80E090E04F
S1130AF00E94630508950F93E82F2091C00030E011
S1130B0040E050E060E070E080E090E005E00E94AA
S1130B101A0F217030E040E050E060E070E080E0C7
S1130B2090E0A0E00E94360F41F3E093C6000F91DD
S1130B3008958CEA91E09093D1028093D0020895B5
S1130B4060E875E280E090E0089581E00895FC019A
S1130B5082810895FC0162830895CF93DF93EB01B2
S1130B60FC018281882369F08881882351F00E94E6
S1130B707B0588818D3019F48AE00E947B052196DB
S1130B80F3CFDF91CF9108952CEA31E0FC0131835A
S1130B90208308952CEA31E0FC013183208363E053
S1130BA070E00E94E70C08952EEB31E0FC013183E4
S1130BB020831282E1ECF0E0808188608083E2ECA3
S1130BC0F0E080818260808380818460808387E616
S1130BD090E09093C5008093C4008DE08093C6009C
S1130BE008958091D302811112C083ED92E00E9496
S1130BF0E90C892B61F080ED92E00E94D40583ED2D
S1130C0092E00E94F20C89E995E00E94760080ED62
S1130C1092E0089521E0FC0182819381892B09F4FB
S1130C2020E0822F0895FC01808508950F931F937F
S1130C30FC019085992381F0A281B3810D911D91CE
S1130C402D913C9144815581668177810417150764
S1130C502607370718F403C091E001C090E0911112
S1130C6009C00280F381E02D108211821282138266
S1130C7081E001C080E01F910F910895FC0164811F
S1130C807581868197810E94040E2FE632E143E04C
S1130C905EE30E94920E20E030E040E05FE30E94B9
S1130CA0F70C0E94D50D0895DC011296ED91FC918C
S1130CB013970480F581E02D108218961C920895F4
S1130CC0CF92DF92EF92FF92CF93DF93EC016A0110
S1130CD07B01452B462B472B11F40E945406C1146B
S1130CE0D104E104F10499F0C701B6010E94040E95
S1130CF02FE632E143E05EE30E94630D20E030E042
S1130D0040E05FE30E94F70C0E94D50D03C060E051
S1130D1070E0CB016C837D838E839F83DF91CF91C1
S1130D20FF90EF90DF90CF9008950F93CF93DF93D0
S1130D30FC014481558166817781452B462B472BE5
S1130D40C1F0EC010E94E30CEA81FB81068104807E
S1130D50F581E02DA08121E030E040E050E060E04A
S1130D6070E080E090E00E94FF0E2A2B208381E057
S1130D708887DF91CF910F910895FC01208522236C
S1130D8019F00E94540608950E9495060895DC0106
S1130D901296ED91FC9113971082118212821382A4
S1130DA00E9495060895FC018085882379F00280CD
S1130DB0F381E02D40815181628173814F5F5F4FE8
S1130DC06F4F7F4F408351836283738308950097ED
S1130DD0D9F0DC011496ED91FC91159710821796C9
S1130DE02C91213031F018F0223051F00BC015BC99
S1130DF009C010928100109289001092880002C0EC
S1130E001092B1000E94E00F0895CF93C82F88E09C
S1130E1090E00E94480F0097A9F1C13069F018F0E2
S1130E20C230D9F024C02EE630E0FC01358324839F
S1130E30168222E025BD20C02FE630E0FC01358378
S1130E40248321E026832AE02093810020E031E0FE
S1130E5030938900209388000FC020E730E0FC0124
S1130E6035832483168222E02093B10005C00E94BA
S1130E70E00F80E090E006C0FC0110821182128233
S1130E801382C783CF91089580E0833078F4E82FEC
S1130E90F0E0EE0FFF1FEF51FD4F20813181232B36
S1130EA019F40E94050708958F5FEFCF80E090E06A
S1130EB00895DC011296ED91FC911397478150E05F
S1130EC08BED92E00E941F0408958F929F92AF923F
S1130ED0BF92CF92DF92EF92FF920F93CF93DF9363
S1130EE0EC014A015B0179018AEE91E099838883E0
S1130EF00E9444076C019B838A8381149104A1049A
S1130F00B10499F0C501B4010E94040E2FE632E148
S1130F1043E05EE30E94630D20E030E040E05FE3E5
S1130F200E94F70C0E94D50D03C060E070E0CB0175
S1130F306C837D838E839F831886C114D10499F0BA
S1130F40D6011796EC91F0E0EE0FFF1FEF51FD4F25
S1130F50D183C083B701CE010E945907002319F041
S1130F60CE010E949506DF91CF910F91FF90EF90F3
S1130F70DF90CF90BF90AF909F908F9008950F9384
S1130F801F93CF93DF938C01EB010E9419048823F4
S1130F9031F0CC0FDD1FC00FD11F19821882DF91F1
S1130FA0CF911F910F910895DC011296ED91FC9160
S1130FB01397678170E08BED92E00E94BF0708955C
S1130FC0CF93DF93EC018AEE91E099838883CE017D
S1130FD00E94D4078A819B81DC011796EC91F0E092
S1130FE0EE0FFF1FEF51FD4F118210820E94E706A2
S1130FF080ED91E099838883DF91CF910895CF9319
S1131000DF93EC010E94E00769E070E0CE010E94EA
S1131010E70CDF91CF9108950F931F93CF93833003
S1131020D0F4E82FF0E0EE0FFF1FEF51FD4F0081E9
S113103011810115110579F0C82FC8010E94D3064A
S1131040C8010E941606882331F06C2F70E08BEDE6
S113105092E00E94C404CF911F910F9108951F92B2
S11310600F920FB60F9211242F933F934F935F93D8
S11310706F937F938F939F93AF93BF93EF93FF935C
S113108080E00E940C08FF91EF91BF91AF919F9176
S11310908F917F916F915F914F913F912F910F901D
S11310A00FBE0F901F9018951F920F920FB60F92BC
S11310B011242F933F934F935F936F937F938F9359
S11310C09F93AF93BF93EF93FF9381E00E940C082B
S11310D0FF91EF91BF91AF919F918F917F916F910C
S11310E05F914F913F912F910F900FBE0F901F90E2
S11310F018951F920F920FB60F9211242F933F93BE
S11311004F935F936F937F938F939F93AF93BF930B
S1131110EF93FF9382E00E940C08FF91EF91BF913F
S1131120AF919F918F917F916F915F914F913F917B
S11311302F910F900FBE0F901F901895019739F4BF
S11311406F3F7F4F21F48BED92E00E9416040895C7
S11311506FEF7FEF81E090E00E949E0808956FEFAB
S11311607FEF80E090E00E949E080895811521E0C1
S1131170920751F170F480329105A1F118F440976F
S1131180E9F02EC080349105D9F080389105D1F072
S113119027C0811528E09207E9F040F4811522E088
S11311A09207A1F08115944099F01AC0811520E1AD
S11311B0920791F08115904289F012C080E0089561
S11311C082E0089583E0089584E0089585E0089519
S11311D086E0089587E0089580E2089581E2089505
S11311E08FEF089581E0089584E092E09093E802FF
S11311F08093E702089581E00895FC0184810895B5
S1131200FC0182819381089524E032E0FC01318362
S11312102083089524E032E0FC013183208365E0DB
S113122070E00E94E70C08950E94E50CA89584B72D
S1131230877F84BF0E94E30C0895CF93C62F0E943A
S113124014090E94E50CE0E6F0E08081806180836F
S1131250808188608083CC2321F0808188608083B2
S113126005C0E0E6F0E08081877F80830E94E30C84
S1131270CF910895FF920F931F93CF93DF93613023
S113128020E27207B8F4EB018C01CB010E94B6088E
S1131290F82E0E94E50CE0E6F0E08081886180830E
S11312A0F0820E94E30C0E94E30CF801D383C28312
S11312B081E001C080E0DF91CF911F910F91FF90F9
S11312C0089526E132E0FC013183208313821282E7
S11312D0148260E074E00E943A0908958091EC025F
S11312E0811112C08CEE92E00E94E90C892B61F00E
S11312F087EE92E00E9461098CEE92E00E94F20C6B
S113130084EF98E00E94760087EE92E00895809141
S1131310F4029091F5020E94F60A08958091F40275
S11313209091F5020E94DD0A08958091F402909153
S1131330F5020E94C70B08956115710549F0DC019F
S1131340ED91FC910484F585E02D099581E00895E3
S113135080E00895CF92DF92EF92FF920F931F9354
S1131360CF93DF93CDB7DEB7C556D1090FB6F89446
S1131370DEBF0FBECDBF6115710581F1D9016A01D0
S11313808C0185E69E012F5F3F4F7901F901282FDB
S113139011922A95E9F73C9111964C91D6019C91B2
S11313A011962C914F933F932F939F937F936F9319
S11313B01F928F93FF92EF920E946910D801ED91D2
S11313C0FC910484F585E02DB701C80109950FB699
S11313D0F894DEBF0FBECDBF81E001C080E0CB59E1
S11313E0DF4F0FB6F894DEBF0FBECDBFDF91CF91B4
S11313F01F910F91FF90EF90DF90CF9008956F921F
S11314007F928F929F92AF92BF92CF92DF92EF9290
S1131410FF920F931F93CF93DF93CDB7DEB7E0977F
S11314200FB6F894DEBF0FBECDBF0E94F1057C015C
S1131430DC01ED91FC910284F385E02D61E00995D6
S113144064E272E0C7010E949C098FEC9FEF9C83C9
S11314508B831A8219829E012D5F3F4FAE014F5F2D
S11314605F4F6FE272E0C7010E94AA0920E030E0FA
S113147042E068E0CE0105960E946F0425E939E058
S113148041E06DE0CE010A960E946F0400E02EE870
S113149039E04CE251E060E070E0CE010F960E942A
S11314A0650727E839E044E650E060E070E0CE01EB
S11314B048960E9465070E946E096C010E94C7014C
S11314C05C010E9432013E01B1E26B0E711C4C01C1
S11314D08E01085E1F4F9E01215F3F4FAE01465FA4
S11314E05F4FBE016B5F7F4FC3010E94760C709209
S11314F0F5026092F402C3010E940B0BC3010E9427
S1131500A70AC8010E94E007CE010F960E94E007D7
S1131510CE010A960E94CC02CE0105960E94CC020E
S113152080E090E0E0960FB6F894DEBF0FBECDBF2A
S1131530DF91CF911F910F91FF90EF90DF90CF90AB
S1131540BF90AF909F908F907F906F900895CF93AE
S1131550DF93EC0188819981DC01ED91FC91008499
S1131560F185E02D60E009958A819B81DC01ED9194
S1131570FC910484F585E02D60E009958C819D81C2
S1131580DC01ED91FC910088F189E02D09958E81B3
S11315909F81DC01ED91FC910088F189E02D099592
S11315A08A859B85DC01ED91FC910084F185E02D19
S11315B060E00995DF91CF910895CF93DF93EC011B
S11315C08C819D81DC01ED91FC910088F189E02DF5
S11315D009958A819B81DC01ED91FC910684F78554
S11315E0E02D61E00995DF91CF910895CF93DF93CA
S11315F0EC0166E472E0888599850E949C098881E3
S11316009981DC01ED91FC910284F385E02D09952B
S1131610DF91CF910895EC0169E572E088859985A1
S11316200E949C098A859B85DC01ED91FC910484D0
S1131630F585E02D0995F6CFDF92EF92FF920F9397
S11316401F93CF93DF93EC018B017A01E881F98139
S11316500284F385E02D41E00995D82E882359F0C2
S1131660E881F9810680F781E02DCE010995882370
S113167021F0D12C02C0DD24D394D1101EC0D1108E
S11316801EC0E881F9810484F585E02D6D2D70E09C
S1131690D7014C9150E0CB01880F991F880F991FF7
S11316A0880F991F02C0559547958A95E2F7600FF8
S11316B0711FCE010995D394E2CF80E001C081E08F
S11316C0DF91CF911F910F91FF90EF90DF900895DC
S11316D00F931F93CF93DF931F92CDB7DEB78C0187
S11316E0DC0116968D919C911797DC01ED91FC918C
S11316F00680F781E02D09958983AE014F5F5F4F26
S113170060E070E0F801848595850E941C0B0F90C1
S1131710DF91CF911F910F910895CF93DF93EC0147
S11317206EE672E0888599850E949C098E819F816E
S1131730DC01ED91FC910288F389E02D0995CE013D
S11317400E94680B8E819F81DC01ED91FC910680E3
S1131750F781E02D0995882339F06FE772E08885D9
S113176099850E949C0910C066E972E08885998574
S11317700E949C0988819981DC01ED91FC9100848F
S1131780F185E02D60E00995DF91CF910895CF9325
S1131790DF93EC018A819B81DC01ED91FC9106844D
S11317A0F785E02D60E009958C819D81DC01ED9148
S11317B0FC910684F785E02D09958A819B81DC01E3
S11317C0ED91FC910680F781E02D0995882319F0AD
S11317D0CE010E948D0BDF91CF910895AF92BF92FD
S11317E0DF92EF92FF920F931F93CF93DF93EC015D
S11317F07B018A01E881F9810284F385E02D41E0CF
S11318000995D82E882359F0E881F9810680F7815B
S1131810E02DCE010995882321F0D12C02C0DD24CE
S1131820D394D11022C0F8011082D11020C0AD2C65
S1131830B12CB7016A0D7B1DE881F9810684F78517
S1131840E02DCE01099590E0AA0CBB1CAA0CBB1C90
S1131850AA0CBB1C02C0880F991FAA94E2F7F801D6
S11318609081892B8083D394E0CF80E001C081E014
S1131870DF91CF911F910F91FF90EF90DF90BF9078
S1131880AF900895CF93DF931F92CDB7DEB719823F
S1131890AE014F5F5F4F60E070E0FC018485958589
S11318A00E94EE0B882329F0998181E0913009F0A0
S11318B080E00F90DF91CF910895CF93DF93EC01F7
S11318C00E94420C882379F08E819F81DC01ED9186
S11318D0FC910684F785E02D09956FE772E0888511
S11318E099850E949C09DF91CF9108956F927F9210
S11318F08F929F92AF92BF92CF92DF92EF92FF921C
S11319000F931F93CF93DF93CDB7DEB73C01CA018A
S1131910D30111967C936E9313965C934E93129716
S113192015963C932E93149717961C930E93169723
S11319301996FC92EE9218971B96DC92CE921A9707
S11319401D96BC92AE921C971F969C928E921E97E7
S1131950DA01ED91FC910484F585E02D61E00995AF
S1131960F30180859185DC01ED91FC910284F3857E
S1131970E02D61E00995F30182859385DC01ED9109
S1131980FC910084F185E02D61E00995F3018485E3
S11319909585DC01ED91FC910084F185E02D61E0F9
S11319A00995C3010E945D0CDF91CF911F910F91A6
S11319B0FF90EF90DF90CF90BF90AF909F908F906B
S11319C07F906F90089578940895F89408950895F9
S11319D00895FC0181E090E02081222311F080E051
S11319E090E0089521E0FC01208308955058BB271E
S11319F0AA270E940E0D0C94580E0E944A0E38F02D
S1131A000E94510E20F039F49F3F19F426F40C94EF
S1131A10470E0EF4E095E7FB0C94410EE92F0E946B
S1131A20690E58F3BA17620773078407950720F005
S1131A3079F4A6F50C948B0E0EF4E0950B2EBA2FC8
S1131A40A02D0B01B90190010C01CA01A0011124C0
S1131A50FF27591B99F0593F50F4503E68F11A166C
S1131A60F040A22F232F342F4427585FF3CF4695FD
S1131A7037952795A795F0405395C9F77EF41F161F
S1131A80BA0B620B730B840BBAF09150A1F0FF0FE9
S1131A90BB1F661F771F881FC2F70EC0BA0F621FD5
S1131AA0731F841F48F4879577956795B795F795C5
S1131AB09E3F08F0B0CF9395880F08F09927EE0F5A
S1131AC09795879508950E94770D0C94580E0E945F
S1131AD0510E58F00E944A0E40F029F45F3F29F05D
S1131AE00C94410E51110C948C0E0C94470E0E94D0
S1131AF0690E68F39923B1F3552391F3951B550BA4
S1131B00BB27AA2762177307840738F09F5F5F4FCC
S1131B10220F331F441FAA1FA9F335D00E2E3AF00B
S1131B20E0E832D091505040E695001CCAF72BD023
S1131B30FE2F29D0660F771F881FBB1F2617370774
S1131B404807AB07B0E809F0BB0B802DBF01FF27A6
S1131B5093585F4F3AF09E3F510578F00C94410E34
S1131B600C948C0E5F3FE4F3983ED4F386957795FE
S1131B706795B795F7959F5FC9F7880F911D96955F
S1131B80879597F90895E1E0660F771F881FBB1FBB
S1131B90621773078407BA0720F0621B730B840B68
S1131BA0BA0BEE1F88F7E09508950E94710E88F035
S1131BB09F5798F0B92F9927B751B0F0E1F0660F0D
S1131BC0771F881F991F1AF0BA95C9F714C0B1304E
S1131BD091F00E948B0EB1E008950C948B0E672F48
S1131BE0782F8827B85F39F0B93FCCF3869577957D
S1131BF06795B395D9F73EF4909580957095619566
S1131C007F4F8F4F9F4F0895E89409C097FB3EF490
S1131C1090958095709561957F4F8F4F9F4F992335
S1131C20A9F0F92F96E9BB279395F69587957795B3
S1131C306795B795F111F8CFFAF4BB0F11F460FF73
S1131C401BC06F5F7F4F8F4F9F4F16C0882311F0CB
S1131C5096E911C0772321F09EE8872F762F05C0DF
S1131C60662371F096E8862F70E060E02AF09A957A
S1131C70660F771F881FDAF7880F9695879597F96F
S1131C80089597F99F6780E870E060E008959FEFFA
S1131C9080EC089500240A941616170618060906FF
S1131CA0089500240A9412161306140605060895CE
S1131CB0092E0394000C11F4882352F0BB0F40F456
S1131CC0BF2B11F460FF04C06F5F7F4F8F4F9F4F96
S1131CD0089557FD9058440F551F59F05F3F71F018
S1131CE04795880F97FB991F61F09F3F79F087957F
S1131CF00895121613061406551FF2CF4695F1DF08
S1131D0008C0161617061806991FF1CF8695710597
S1131D10610508940895E894BB2766277727CB01CB
S1131D2097F908950E94A50E0C94580E0E944A0E2D
S1131D3038F00E94510E20F0952311F00C94410EBE
S1131D400C94470E11240C948C0E0E94690E70F3AF
S1131D50959FC1F3950F50E0551F629FF001729F4C
S1131D60BB27F00DB11D639FAA27F00DB11DAA1F5B
S1131D70649F6627B00DA11D661F829F2227B00DA8
S1131D80A11D621F739FB00DA11D621F839FA00D33
S1131D90611D221F749F3327A00D611D231F849F83
S1131DA0600D211D822F762F6A2F11249F575040DA
S1131DB09AF0F1F088234AF0EE0FFF1FBB1F661F55
S1131DC0771F881F91505040A9F79E3F510580F01E
S1131DD00C94410E0C948C0E5F3FE4F3983ED4F3C4
S1131DE0869577956795B795F795E7959F5FC1F7C2
S1131DF0FE2B880F911D9695879597F908950F935B
S1131E00083090F0982F872F762F652F542F432F6B
S1131E10322F22270850F4CF220F331F441F551F9F
S1131E20661F771F881F991F0A95B2F70F910895AF
S1131E3097FB10F8169400080F93083098F0085098
S1131E40232F342F452F562F672F782F892F902D2E
S1131E50F4CF05949795879577956795579547950A
S1131E60379527950A95AAF70F9108950024A7FDA1
S1131E7000942A173005400550056005700580055B
S1131E8090050895EE0FFF1F0590F491E02D09943D
S1131E900F931F93CF93DF938230910510F482E068
S1131EA090E0E091F802F091F90220E030E0A0E047
S1131EB0B0E0309719F140815181028113814817B4
S1131EC05907C8F08417950769F4109731F01296F2
S1131ED00C93129713961C9327C00093F802109347
S1131EE0F90222C02115310519F04217530718F4DD
S1131EF09A01BD01EF01DF01F801DBCF21153105A6
S1131F00F9F0281B390B2430310580F48A819B8138
S1131F106115710521F0FB019383828304C09093C2
S1131F20F9028093F802FE01329644C0FE01E20FEA
S1131F30F31F8193919322503109398328833AC046
S1131F402091F6023091F702232B41F420910201F3
S1131F50309103013093F7022093F602209100019F
S1131F60309101012115310541F42DB73EB740915F
S1131F70040150910501241B350BE091F602F09108
S1131F80F702E217F307A0F42E1B3F0B28173907BB
S1131F9078F0AC014E5F5F4F2417350748F04E0FC1
S1131FA05F1F5093F7024093F6028193919302C00E
S1131FB0E0E0F0E0CF01DF91CF911F910F91089500
S1131FC0CF93DF93009709F481C0FC013297138209
S1131FD01282A091F802B091F902109781F4208145
S1131FE03181820F931F2091F6023091F702281756
S1131FF0390751F5F093F702E093F60267C0ED015B
S113200020E030E0CE17DF0740F44A815B819E0177
S113201041155105F1F0EA01F5CFD383C283408124
S11320205181840F951FC817D90759F48881998164
S1132030840F951F0296918380838A819B81938369
S113204082832115310529F4F093F902E093F80213
S11320503DC0E901FB83EA8349915991C40FD51F1F
S1132060EC17FD0761F480819181840F951F02961E
S1132070E90199838883828193819B838A83E0E049
S1132080F0E012968D919C911397009719F0FD0141
S1132090DC01F7CF8D919C9111979D012E5F3F4FED
S11320A0820F931F2091F6023091F7022817390707
S11320B069F4309729F41092F9021092F80202C0E0
S11320C013821282B093F702A093F602DF91CF91AC
S11320D00895AEE0B0E0EFE6F0E10C9438130D891A
S11320E01E898F89988D26E02C831A83098397FF94
S11320F002C080E090E801979E838D83AE01455E27
S11321005F4F698D7A8DCE0101960E9499104D81A1
S11321105E8157FD0AC02F813885421753070CF49E
S11321209A01F801E20FF31F10822E96E4E00C945A
S11321305413ABE0B0E0EFE9F0E10C942A136C0126
S11321407B018A01FC0117821682838181FFCCC145
S1132150CE0101963C01F6019381F70193FD85912F
S113216093FF81917F01882309F4BAC1853239F440
S113217093FD859193FF81917F01853229F4B60106
S113218090E00E949012E7CF912C212C312CFFE19A
S1132190F315D8F08B3279F038F4803279F0833249
S11321A0A1F4232D20611DC08D3261F0803369F4C8
S11321B0232D216016C0832D8260382EE32DE46028
S11321C03E2E2AC0F32DF8601DC037FC2DC020ED33
S11321D0280F2A3040F08E32B9F436FC81C1232D09
S11321E02064322E19C036FE06C08AE0989E200D67
S11321F01124922E11C0EAE02E9E200D1124222ECD
S1132200F32DF0623F2E08C08C3621F4832D8068B4
S1132210382E02C0883641F4F70193FD859193FF6F
S113222081917F018111B3CF982F9F7D9554933075
S113223028F40C5F1F4F9FE399830DC0833631F060
S1132240833771F0833509F059C021C0F8018081CA
S113225089830E5F1F4F88248394912C530113C0EC
S11322602801F2E04F0E511CF801A080B18036FE27
S113227003C0692D70E002C06FEF7FEFC5010E94BB
S113228085124C018201F32DFF773F2E16C02801E1
S113229022E0420E511CF801A080B18036FE03C03A
S11322A0692D70E002C06FEF7FEFC5010E947A12C2
S11322B04C01F32DF0683F2E820133FC1BC0822DAC
S11322C090E088169906B0F4B60180E290E00E948E
S11322D090122A94F4CFF50137FC859137FE819151
S11322E05F01B60190E00E94901221102A9421E02F
S11322F0821A91088114910471F7E8C0843611F0B0
S1132300893641F5F80137FE07C060817181828109
S113231093810C5F1F4F08C060817181072E000CF0
S1132320880B990B0E5F1F4FF32DFF763F2E97FFFF
S113233009C090958095709561957F4F8F4F9F4F01
S1132340F0683F2E2AE030E0A3010E94CC12882ED0
S1132350861845C0853731F4232D2F7EB22E2AE00E
S113236030E025C0932D997FB92E8F36C1F018F433
S1132370883579F0B5C0803719F0883721F0B0C0BE
S1132380E92FE061BE2EB4FE0DC0FB2DF460BF2E1C
S113239009C034FE0AC0292F2660B22E06C028E0E8
S11323A030E005C020E130E002C020E132E0F80175
S11323B0B7FE07C060817181828193810C5F1F4FDA
S11323C006C06081718180E090E00E5F1F4FA30121
S11323D00E94CC12882E8618FB2DFF773F2E36FEE6
S11323E00DC0232D2E7FA22E891458F434FE0BC069
S11323F032FC09C0832D8E7EA82E05C0B82CA32CD8
S113240003C0B82C01C0B92CA4FE0FC0FE01E80D16
S1132410F11D8081803321F49A2D997EA92E09C063
S1132420A2FE06C0B394B39404C08A2D867809F042
S1132430B394A3FC11C0A0FE06C0B21488F4280C07
S1132440922C9B180EC0B21460F4B60180E290E0A6
S11324500E949012B394F7CFB21418F42B1802C050
S1132460982C212CA4FE10C0B60180E390E00E94B9
S11324709012A2FE17C0A1FC03C088E790E002C03E
S113248088E590E0B6010CC08A2D867859F0A1FE4B
S113249002C08BE201C080E2A7FC8DE2B60190E0AD
S11324A00E949012891438F4B60180E390E00E94EF
S11324B090129A94F7CF8A94F301E80DF11D80816C
S11324C0B60190E00E9490128110F5CF222009F409
S11324D042CEB60180E290E00E9490122A94F6CF98
S11324E0F6018681978102C08FEF9FEF2B96E2E180
S11324F00C944613FC010590615070400110D8F70C
S1132500809590958E0F9F1F0895FC016150704037
S113251001900110D8F7809590958E0F9F1F089514
S11325200F931F93CF93DF93FB01238121FD03C0FE
S11325308FEF9FEF2CC022FF16C046815781248164
S113254035814217530744F4A081B1819D012F5F67
S11325503F4F318320838C93268137812F5F3F4FF8
S11325603783268314C08B01EC01FB010084F185C1
S1132570E02D0995892BE1F6D80116968D919C9151
S11325801797019617969C938E931697CE01DF9119
S1132590CF911F910F910895FA01AA27283051F184
S11325A0203181F1E8946F936E7F6E5F7F4F8F4F80
S11325B09F4FAF4FB1E03ED0B4E03CD0670F781FDF
S11325C0891F9A1FA11D680F791F8A1F911DA11DC4
S11325D06A0F711D811D911DA11D20D009F46894FD
S11325E03F912AE0269F11243019305D3193DEF6A5
S11325F0CF010895462F4770405D4193B3E00FD05B
S1132600C9F7F6CF462F4F70405D4A3318F0495D45
S113261031FD4052419302D0A9F7EACFB4E0A69528
S11326209795879577956795BA95C9F7009761054A
S1132630710508959B01AC010A2E069457954795A0
S113264037952795BA95C9F7620F731F841F951F95
S1132650A01D08952F923F924F925F926F927F92A6
S11326608F929F92AF92BF92CF92DF92EF92FF929E
S11326700F931F93CF93DF93CDB7DEB7CA1BDB0B4A
S11326800FB6F894DEBF0FBECDBF09942A883988EF
S113269048885F846E847D848C849B84AA84B984F6
S11326A0C884DF80EE80FD800C811B81AA81B98102
S11326B0CE0FD11D0FB6F894DEBF0FBECDBFED0116
S11326C008950E94620010E0C6E3D0E004C0FE0159
S11326D00E94420F2196C833D107C9F7F894FFCF5F
S11326E00000FA0220002A002B0029006D000202DB
S11326F02700280026006C00010124002500230087
S11327006B0000000000000000000000E80CE80C72
S1132710E80CE80CE80CE80CE80CE80CE80C000009
S1132720000018011E019B009D00A000A500F900F7
S11327300701100112011501000000000000000053
S1132740E80CE80CE80CE80CE80CE80C00000000CD
S1132750830189015201540157015A019301620115
S11327600000000000000000E80CE80CE80CE80C95
S1132770E80CE80C00000000CC024103E001E90190
S11327800302360282025102000000000000000031
S1132790E80CE80CE80CE80CE80C00000000C405A8
S11327A0CA05A005A505A705AA05AD0500000000FA
S11327B000000000E80CE80CE80CE80CE80CE80C5D
S11327C0E80CE80CE80C00000000E007FF070A062C
S11327D0130616063E06600695065406BD06C70691
S11327E00000000000000000E80CE80CE80CE80C15
S11327F0E80C0000000004090A09FB08FD081D0993
S11328000009140948656A2C204F6C6C650A00495C
S11328106E7075743A2025642C206F75747075740D
S11328203A2025640A00546F67676C696E672074E8
S11328306865204C4544210A0052756E6E696E67C6
S1132840207468652073797374656D210A0042757C
S113285074746F6E2070726573736564210A00541A
S11328606F67676C652074696D657220656E61625F
S11328706C6564210A00546F67676C652074696D28
S111288065722064697361626C6564210A00EC
S9030000FC
