:100000000C9439000C9461000C9461000C94FF0472
:100010000C9427050C944F050C9461000C9461001E
:100020000C9461000C948D080C9461000C94680889
:100030000C9461000C9461000C9461000C946100BC
:100040000C9443080C9461000C9461000C946100C2
:100050000C9461000C9461000C9461000C9461009C
:100060000C9461000C9461008105BC082012880585
:10007000C30811241FBECFEFD8E0DEBFCDBF13E011
:10008000A0E0B1E0E8E8FAE302C005900D92A030EC
:10009000B107D9F723E0A0E0B3E001C01D92A3357A
:1000A000B207E1F710E0C7E3D0E004C02197FE01FA
:1000B0000E948817C433D107C9F70E94940C0C948E
:1000C000351D0C940000A0910003B091010310971E
:1000D00069F0ED91FC91119712968D919C91139777
:1000E00090930103809300030995EDCF0895CF937A
:1000F000DF93EC0184E090E00E948E17009781F07E
:10010000FC01D183C083209100033091010333832C
:100110002283909301038093000380E090E002C06B
:1001200081E090E0DF91CF910895FC010FB6F89443
:1001300060914F037091500380915103909152034D
:100140000FBE309721F0608371838283938308957B
:100150008CE291E0909303038093020308958AE078
:1001600008958FEF93E0089560E070E080EA90E4F6
:1001700008950F93FC018281882309F44AC06630F8
:1001800010F4982F01C090E0911105C06E3018F066
:10019000643108F4982F9923C9F1663008F06E5045
:1001A000606460937C00EAE7F0E08081806880838F
:1001B000808180648083808181608083808182608F
:1001C000808380818460808320917A0030E040E0E9
:1001D00050E060E070E080E090E004E00E94601792
:1001E000217030E040E050E060E070E080E090E0BE
:1001F000A0E00E947C1741F3EAE7F0E08081806193
:100200008083809178009091790005C080E090E033
:1002100002C080E090E00F9108950E94B900BC01F7
:1002200080E090E00E940D1620E030EC4FE754E4AF
:100230000E94651508950E940D0120E030E040EA1B
:1002400050E40E94C416089581E00895FC01828163
:100250000895FC01628308952CE231E0FC013183B2
:10026000208308952CE231E0FC013183208363E098
:1002700070E00E94E414089526E431E0FC0131832B
:100280002083128260E00E94B900089580910503E6
:10029000811112C085E093E00E94E614892B61F081
:1002A00082E093E00E943C0185E093E00E94EF141D
:1002B00088EA90E00E94770082E093E0089580E66B
:1002C00091E090930E0380930D03089581E00895CB
:1002D000FC0182810895FC0162830895640F711D01
:1002E00081E06115744008F080E008950F93FB01F0
:1002F0002FB330E040E050E060E070E080E090E05C
:1003000001E00E946017217030E040E050E060E0C2
:1003100070E080E090E0A0E00E947C1749F7F2BD19
:10032000E1BD8FB381608FBB80B50F91089520E64A
:1003300031E0FC0131832083089520E631E0FC01A7
:100340003183208363E070E00E94E41408950F93EA
:10035000CF93DF93EB01E42F2FB330E040E050E088
:1003600060E070E080E090E001E00E9460172170A2
:1003700030E040E050E060E070E080E090E0A0E03D
:100380000E947C1749F7D2BDC1BDE0BD0E94E214B6
:100390008FB384608FBB8FB382608FBB0E94E014E9
:1003A000DF91CF910F91089524E731E0FC01318373
:1003B00020831282089580911003811112C080E180
:1003C00093E00E94E614892B61F08DE093E00E9497
:1003D000D40180E193E00E94EF148FE591E00E9448
:1003E00077008DE093E0089521E0FC018281938104
:1003F000892B09F420E0822F08950F93DC011496D5
:100400000C9114971296ED91FC9113970480F5814D
:10041000E02D208130E040E050E060E070E080E0DE
:1004200090E00E946017822F81700F9108950F93C2
:100430006623C9F0DC0114960C9114971296ED9185
:10044000FC9113970280F381E02DA08121E030E040
:1004500040E050E060E070E080E090E00E944517EE
:100460002A2B208315C0FC0104810280F381E02D3A
:10047000A281B381EC9121E030E040E050E060E007
:1004800070E080E090E00E9445172095E223EC9315
:100490000F9108950F93DC0114960C911497129606
:1004A000ED91FC9113970480F581E02DA08121E06E
:1004B00030E040E050E060E070E080E090E00E94DA
:1004C00045172A2B20830F9108950F936623B1F0CF
:1004D000DC011296ED91FC9113970085E8E6F0E0BF
:1004E000A08121E030E040E050E060E070E080E09A
:1004F00090E00E9445172A2B208316C0DC0112963B
:10050000ED91FC9113970085A8E6B0E0EC9121E015
:1005100030E040E050E060E070E080E090E00E9479
:1005200045172095E223EC930F9108950F93CF93F5
:10053000DF93662349F1EC010E94E014EA81FB811C
:100540000085E8E6F0E0A08121E030E040E050E006
:1005500060E070E080E090E00E9445172A2B208345
:100560000C81EA81FB810680F781E02DA08121E0EA
:1005700030E040E050E060E070E080E090E00E9419
:1005800045172A2B208318C0DC0114960C91149770
:100590001296ED91FC911397A681B781EC9121E021
:1005A00030E040E050E060E070E080E090E00E94E9
:1005B00045172095E223EC93DF91CF910F91089599
:1005C0004F925F926F927F928F929F92AF92BF9263
:1005D000CF92DF92EF92FF920F93CF93DF93EC01D4
:1005E0008CE991E0998388830C81EA81FB81A08169
:1005F000B181EC9121E030E040E050E060E070E05B
:1006000080E090E00E9445172095E223EC930C8156
:10061000EA81FB81A281B381EC9121E030E040E0EE
:1006200050E060E070E080E090E00E944517209587
:10063000E223EC930C81E8E1F3E04080518062809A
:10064000738021E030E040E050E060E070E080E066
:1006500090E00E944517822E932EA42EB52E8094F2
:100660009094A094B09484209520A620B7208082F6
:100670009182A282B38260E0CE010E9496021B8228
:100680001A8288E891E099838883DF91CF910F9156
:10069000FF90EF90DF90CF90BF90AF909F908F90A2
:1006A0007F906F905F904F900895CF93DF93EC0110
:1006B0000E94E00265E070E0CE010E94E414DF9148
:1006C000CF910895883020F08E3020F090E003C064
:1006D00090E001C091E091110FC08E3018F084318C
:1006E00008F491E091110BC0863008F491E0992351
:1006F00049F08AE091E008958EE191E0089584E167
:1007000091E0089580E090E008954F925F926F929B
:100710007F928F929F92AF92BF92CF92DF92EF9291
:10072000FF920F93E82F8431D8F46330D8F48431EA
:10073000A8F48090180390901903A0901A03B09029
:100740001B03282D392D4A2D5B2D60E070E080E0E1
:1007500090E00E2F0E946017217005C020E003C0BA
:1007600021E001C021E0211128C00E2F8E2F0E9410
:100770006203FC01009721F1A8E1B3E04D905D9088
:100780006D907C90139721E030E040E050E060E015
:1007900070E080E090E00E944517822E932EA42EF8
:1007A000B52E84289528A628B7288D929D92AD92C3
:1007B000BC9213978E2F9F2F04C080E090E001C061
:1007C0009F2F0F91FF90EF90DF90CF90BF90AF9051
:1007D0009F908F907F906F905F904F9008950F93B0
:1007E0006130C9F4DC0114960C9114971296ED91C6
:1007F000FC9113970280F381E02DA08121E030E08D
:1008000040E050E060E070E080E090E00E9445173A
:100810002A2B208317C06230A9F4FC0104810280D6
:10082000F381E02D0190F081E02DA08121E030E006
:1008300040E050E060E070E080E090E00E9445170A
:100840002A2B20830F91089526E0FC0111922A950E
:10085000E9F708950E942404089581E0633071054A
:1008600008F080E00895EF92FF920F931F93CF93CB
:10087000DF938C017B01EA01BA010E942D048823D9
:1008800021F0E114F10419F403C081E001C080E01B
:10089000811108C0CC0FDD1FC00FD11FF982E88283
:1008A00081E001C080E0DF91CF911F910F91FF9017
:1008B000EF900895DC011296ED91FC911397028060
:1008C000F381E02D908185B1981307C040E050E09E
:1008D0008CE193E00E9433040895908188B19813CD
:1008E00007C041E050E08CE193E00E94330408959A
:1008F00090818BB1981306C042E050E08CE193E008
:100900000E9433040895EF92FF920F931F93CF93A9
:10091000DF938C01C62FD42F79018CE991E0F80187
:1009200091838083642F8C2F0E9485039C01F801A2
:1009300093838283C83020F0CE3020F090E003C053
:1009400090E001C091E0992311F0C8500FC0CE3063
:1009500018F0C43108F491E0992311F0CE5006C08C
:10096000C63008F491E0911101C0CFEFF801C483C3
:10097000232B59F06D2FC8010E94EF03E114F104FD
:1009800021F0B701C8010E945A04DF91CF911F9155
:100990000F91FF90EF900895660F771F860F971FB6
:1009A000FC012081318181E0232B09F480E008954E
:1009B000EF92FF921F93CF93DF937C01EB010E9494
:1009C0002D04182F882341F0BE01C7010E94CC04DA
:1009D000882319F010E001C011E0111109C0CC0FFB
:1009E000DD1FCE0DDF1DE881F981099581E001C091
:1009F00080E0DF91CF911F91FF90EF9008951F92BB
:100A00000F920FB60F9211242F933F934F935F9342
:100A10006F937F938F939F93AF93BF93EF93FF93C6
:100A200060E070E08CE193E00E94D804FF91EF91C8
:100A3000BF91AF919F918F917F916F915F914F91F6
:100A40003F912F910F900FBE0F901F9018951F92FE
:100A50000F920FB60F9211242F933F934F935F93F2
:100A60006F937F938F939F93AF93BF93EF93FF9376
:100A700061E070E08CE193E00E94D804FF91EF9177
:100A8000BF91AF919F918F917F916F915F914F91A6
:100A90003F912F910F900FBE0F901F9018951F92AE
:100AA0000F920FB60F9211242F933F934F935F93A2
:100AB0006F937F938F939F93AF93BF93EF93FF9326
:100AC00062E070E08CE193E00E94D804FF91EF9126
:100AD000BF91AF919F918F917F916F915F914F9156
:100AE0003F912F910F900FBE0F901F901895019777
:100AF00039F46F3F7F4F21F48CE193E00E942A0488
:100B000008956FEF7FEF81E090E00E9477050895F0
:100B10006FEF7FEF80E090E00E94770508950F93DC
:100B2000E82F2091C00030E040E050E060E070E04D
:100B300080E090E005E00E946017217030E040E026
:100B400050E060E070E080E090E0A0E00E947C1760
:100B500041F3E093C6000F91089580EB91E09093EC
:100B6000230380932203089560E875E280E090E01B
:100B7000089581E00895FC0182810895FC0162835B
:100B80000895CF93DF93EB01FC018281882369F004
:100B90008881882351F00E948F0588818D3019F457
:100BA0008AE00E948F052196F3CFDF91CF910895BF
:100BB00020EB31E0FC0131832083089520EB31E00C
:100BC000FC013183208363E070E00E94E414089507
:100BD00022EC31E0FC01318320831282E1ECF0E071
:100BE000808188608083E2ECF0E080818260808395
:100BF00080818460808387E690E09093C500809335
:100C0000C4008DE08093C600089580912503811172
:100C100012C085E293E00E94E614892B61F082E223
:100C200093E00E94E80585E293E00E94EF148DEACC
:100C300095E00E94770082E293E0089521E0FC01B4
:100C400082819381892B09F420E0822F0895FC0191
:100C5000808508950F931F93FC019085992381F05F
:100C6000A281B3810D911D912D913C9144815581BB
:100C700066817781041715072607370718F403C024
:100C800091E001C090E0911109C00280F381E02D54
:100C9000108211821282138281E001C080E01F91D4
:100CA0000F910895FC0164817581868197810E946E
:100CB0000D162FE632E143E05EE30E94C41620E009
:100CC00030E040E05FE30E94F4140E94DE150895D6
:100CD000DC011296ED91FC9113970480F581E02DD3
:100CE000108218961C920895CF92DF92EF92FF9295
:100CF000CF93DF93EC016A017B01452B462B472BF9
:100D000011F40E946806C114D104E104F10499F0C1
:100D1000C701B6010E940D162FE632E143E05EE303
:100D20000E94651520E030E040E05FE30E94F4148B
:100D30000E94DE1503C060E070E0CB016C837D8310
:100D40008E839F83DF91CF91FF90EF90DF90CF90C4
:100D500008950F93CF93DF93FC0144815581668101
:100D60007781452B462B472BC1F0EC010E94E01404
:100D7000EA81FB8106810480F581E02DA08121E0DC
:100D800030E040E050E060E070E080E090E00E9401
:100D900045172A2B208381E08887DF91CF910F911F
:100DA0000895FC012085222319F00E946806089509
:100DB0000E94A9060895DC011296ED91FC9113970B
:100DC00010821182128213820E94A9060895FC01EA
:100DD0008085882379F00280F381E02D4081518164
:100DE000628173814F5F5F4F6F4F7F4F40835183AD
:100DF0006283738308950097D9F0DC011496ED9116
:100E0000FC911597108217962C91213031F018F033
:100E1000223051F00BC015BC09C010928100109215
:100E200089001092880002C01092B1000E9426181A
:100E30000895CF93C82F88E090E00E948E17009706
:100E4000A9F1C13069F018F0C230D9F024C02EE603
:100E500030E0FC0135832483168222E025BD20C0CA
:100E60002FE630E0FC013583248321E026832AE04D
:100E70002093810020E031E03093890020938800A6
:100E80000FC020E730E0FC0135832483168222E086
:100E90002093B10005C00E94261880E090E006C0B3
:100EA000FC011082118212821382C783CF910895B0
:100EB00080E0833078F4E82FF0E0EE0FFF1FED5C68
:100EC000FC4F20813181232B19F40E9419070895CA
:100ED0008F5FEFCF80E090E00895DC011296ED91F6
:100EE000FC911397478150E08DE293E00E94330418
:100EF00008958F929F92AF92BF92CF92DF92EF921E
:100F0000FF920F93CF93DF93EC014A015B017901CC
:100F10008EEE91E0998388830E9458076C019B8331
:100F20008A8381149104A104B10499F0C501B4012C
:100F30000E940D162FE632E143E05EE30E94651544
:100F400020E030E040E05FE30E94F4140E94DE15F0
:100F500003C060E070E0CB016C837D838E839F8350
:100F60001886C114D10499F0D6011796EC91F0E0DF
:100F7000EE0FFF1FED5CFC4FD183C083B701CE01A4
:100F80000E946D07002319F0CE010E94A906DF918F
:100F9000CF910F91FF90EF90DF90CF90BF90AF90E7
:100FA0009F908F9008950F931F93CF93DF938C01A1
:100FB000EB010E942D04882331F0CC0FDD1FC00F00
:100FC000D11F19821882DF91CF911F910F9108953F
:100FD000DC011296ED91FC911397678170E08DE230
:100FE00093E00E94D3070895CF93DF93EC018EEE38
:100FF00091E099838883CE010E94E8078A819B81D2
:10100000DC011796EC91F0E0EE0FFF1FED5CFC4F5A
:10101000118210820E94FB0684ED91E099838883FF
:10102000DF91CF910895CF93DF93EC010E94F407F5
:1010300069E070E0CE010E94E414DF91CF91089541
:101040000F931F93CF938330D0F4E82FF0E0EE0F8F
:10105000FF1FED5CFC4F008111810115110579F036
:10106000C82FC8010E94E706C8010E942A068823EB
:1010700031F06C2F70E08DE293E00E94D804CF91A4
:101080001F910F9108951F920F920FB60F92112486
:101090002F933F934F935F936F937F938F939F9380
:1010A000AF93BF93EF93FF9380E00E942008FF91DE
:1010B000EF91BF91AF919F918F917F916F915F91D0
:1010C0004F913F912F910F900FBE0F901F90189549
:1010D0001F920F920FB60F9211242F933F934F93AD
:1010E0005F936F937F938F939F93AF93BF93EF9390
:1010F000FF9381E00E942008FF91EF91BF91AF9193
:101100009F918F917F916F915F914F913F912F911F
:101110000F900FBE0F901F9018951F920F920FB651
:101120000F9211242F933F934F935F936F937F936D
:101130008F939F93AF93BF93EF93FF9382E00E94AF
:101140002008FF91EF91BF91AF919F918F917F9177
:101150006F915F914F913F912F910F900FBE0F9024
:101160001F901895019739F46F3F7F4F21F48DE25E
:1011700093E00E942A0408956FEF7FEF81E090E0F2
:101180000E94B20808956FEF7FEF80E090E00E9428
:10119000B2080895811521E0920751F170F4803270
:1011A0009105A1F118F44097E9F02EC08034910523
:1011B000D9F080389105D1F027C0811528E0920739
:1011C000E9F040F4811522E09207A1F081159440E6
:1011D00099F01AC0811520E1920791F08115904293
:1011E00089F012C080E0089582E0089583E00895B8
:1011F00084E0089585E0089586E0089587E00895E5
:1012000080E2089581E208958FEF089581E00895C6
:1012100088E092E090933A0380933903089581E047
:101220000895FC0184810895FC01828193810895D1
:1012300028E032E0FC0131832083089528E032E089
:10124000FC013183208365E070E00E94E41408957E
:101250000E94E214A89584B7877F84BF0E94E0149F
:101260000895CF93C62F0E9428090E94E214E0E659
:10127000F0E0808180618083808188608083CC23DE
:1012800021F080818860808305C0E0E6F0E0808105
:10129000877F80830E94E014CF910895FF920F937F
:1012A0001F93CF93DF93613020E27207B8F4EB0114
:1012B0008C01CB010E94CA08F82E0E94E214E0E6DD
:1012C000F0E0808188618083F0820E94E0140E94B7
:1012D000E014F801D383C28381E001C080E0DF9194
:1012E000CF911F910F91FF9008952AE132E0FC0108
:1012F0003183208313821282148260E074E00E94A2
:101300004E09089580913E03811112C08EE393E04F
:101310000E94E614892B61F089E393E00E9475092D
:101320008EE393E00E94EF1488E099E00E9477003A
:1013300089E393E0089580914603909147030E94CA
:101340007612089580914603909147030E945D12A2
:10135000089580914603909147030E94BE1308951B
:10136000FB0120813181FC01318320830895FB0141
:101370004081518122813381220F331F220F331F7D
:10138000240F351FFC01318320830895CF92DF9213
:10139000EF92FF920F931F93CF93DF93CDB7DEB7FA
:1013A000C556D1090FB6F894DEBF0FBECDBF61158B
:1013B000710581F1D9016A018C0185E69E012F5FDB
:1013C0003F4F7901F901282F11922A95E9F73C91B5
:1013D00011964C91D6019C9111962C914F933F936D
:1013E0002F939F937F936F931F928F93FF92EF9210
:1013F0000E94DA19D801ED91FC910484F585E02D65
:10140000B701C80109950FB6F894DEBF0FBECDBF76
:1014100081E001C080E0CB59DF4F0FB6F894DEBF0A
:101420000FBECDBFDF91CF911F910F91FF90EF9035
:10143000DF90CF9008956115710549F0DC01ED91C1
:10144000FC910484F585E02D099581E0089580E004
:101450000895FC0111821082138212820895CF93A5
:10146000DF93EC01888199810E94261819821882E5
:101470001B821A82DF91CF9108950E942F0A08954E
:101480000F931F93CF93DF93EC018B01660F771FB0
:10149000660F771F888199810E940B19009731F0A0
:1014A000998388831B830A8381E001C080E0DF91F8
:1014B000CF911F910F9108950F931F93CF93DF93B7
:1014C000A0E0B0E0AE30B10510F59D01240F351F4E
:1014D000EC01EA81FB812E173F07C8F4220F331F6E
:1014E000220F331FE881F981E20FF31FED01CC0FCA
:1014F000DD1FCC0FDD1FC60FD71F088119812A8180
:101500003B8100831183228333831196DBCFDF91EC
:10151000CF911F910F910895CF92DF92EF92FF929A
:101520001F93CF93DF93EC016B01EA80FB80B7013F
:10153000625F7F4F0E94400A182F882329F0A7017D
:10154000B601CE010E945C0A812FDF91CF911F91DD
:10155000FF90EF90DF90CF9008952F923F924F929F
:101560005F926F927F928F929F92AF92BF92CF9233
:10157000DF92EF92FF920F931F93CF93DF93CDB73C
:10158000DEB7EA970FB6F894DEBF0FBECDBF3C01C1
:101590002B011A013AAF29AF0E94290AF20180817A
:1015A0009181A281B38189839A83AB83BC83F1014A
:1015B00080819181A281B3818D839E83AF83B8871F
:1015C000E9ADFAAD80819181A281B38189879A8743
:1015D000AB87BC87F80180819181A281B3818D871F
:1015E0009E87AF87B88BF70180819181A281B381FB
:1015F000898B9A8BAB8BBC8BF60180819181A28108
:10160000B3818D8B9E8BAF8BB88FF50180819181DB
:10161000A281B381898F9A8FAB8FBC8FF4018081B7
:101620009181A281B3818D8F9E8FAF8FB8A3619678
:10163000EEADFFAD619780819181A281B38189A3D5
:101640009AA3ABA3BCA36396EEADFFAD6397808175
:101650009181A281B3818DA39EA3AFA3B8A7659604
:10166000EEADFFAD659780819181A281B38189A79D
:101670009AA7ABA7BCA76796EEADFFAD6797808131
:101680009181A281B3818DA79EA7AFA7B8AB6996C0
:10169000EEADFFAD699780819181A281B38189AB65
:1016A0009AABABABBCAB6B96EEADFFAD6B978081ED
:1016B0009181A281B3818DAB9EABAFABB8AFBE01C0
:1016C0006F5F7F4FC3010E948C0AEA960FB6F894B1
:1016D000DEBF0FBECDBFDF91CF911F910F91FF9065
:1016E000EF90DF90CF90BF90AF909F908F907F90C2
:1016F0006F905F904F903F902F9008950F931F939E
:10170000CF93DF93A0E0B0E0AD30B10510F59D01BF
:10171000240F351FEC01EA81FB812E173F07C8F427
:10172000220F331F220F331FE881F981E20FF31FCD
:10173000ED01CC0FDD1FCC0FDD1FC60FD71F0881B9
:1017400019812A813B81008311832283338311967F
:10175000DBCFDF91CF911F910F910895CF92DF9250
:10176000EF92FF921F93CF93DF93EC016B01EA801E
:10177000FB80B701635F7F4F0E94400A182F8823C8
:1017800029F0A701B601CE010E947E0B812FDF91C7
:10179000CF911F91FF90EF90DF90CF9008952F92FF
:1017A0003F924F925F926F927F928F929F92AF92F1
:1017B000BF92CF92DF92EF92FF920F931F93CF933E
:1017C000DF93CDB7DEB7E6970FB6F894DEBF0FBE56
:1017D000CDBF3C012B011A013EAB2DAB0E94290A63
:1017E000F20180819181A281B38189839A83AB8345
:1017F000BC83F10180819181A281B3818D839E831D
:10180000AF83B887EDA9FEA980819181A281B381C0
:1018100089879A87AB87BC87F80180819181A281F3
:10182000B3818D879E87AF87B88BF70180819181C7
:10183000A281B381898B9A8BAB8BBC8BF6018081A3
:101840009181A281B3818D8B9E8BAF8BB88FF50177
:1018500080819181A281B381898F9A8FAB8FBC8F58
:10186000F40180819181A281B3818D8F9E8FAF8F92
:10187000B8A32D96EEADFFAD2D9780819181A28109
:10188000B38189A39AA3ABA3BCA32F96EEADFFAD02
:101890002F9780819181A281B3818DA39EA3AFA355
:1018A000B8A76196EEADFFAD619780819181A2816D
:1018B000B38189A79AA7ABA7BCA76396EEADFFAD8E
:1018C000639780819181A281B3818DA79EA7AFA7E5
:1018D000B8AB6596EEADFFAD659780819181A28131
:1018E000B38189AB9AABABABBCABBE016F5F7F4F33
:1018F000C3010E94AE0BE6960FB6F894DEBF0FBE92
:10190000CDBFDF91CF911F910F91FF90EF90DF90AE
:10191000CF90BF90AF909F908F907F906F905F908F
:101920004F903F902F9008954F925F926F927F92C9
:101930008F929F92AF92BF92CF92DF92EF92FF92DF
:101940000F931F93CF93DF93CDB7DEB7CA5BD10957
:101950000FB6F894DEBF0FBECDBF0E9405063C0156
:10196000DC01ED91FC910284F385E02D61E00995A5
:10197000E1961CAE1DAE1EAE1FAEE1978AE999E955
:10198000A9E9BEE3AD968CAF9DAFAEAFBFAFAD974B
:101990008AE999E9A9E1BFE3A9968CAF9DAFAEAF03
:1019A000BFAFA99786E696E6A6E6BFE3A5968CAFFD
:1019B0009DAFAEAFBFAFA5978AE999E9A9E9BFE3AB
:1019C000A1968CAF9DAFAEAFBFAFA19780E090E086
:1019D000A0ECBFE36D968CAF9DAFAEAFBFAF6D9780
:1019E00086E696E6A6EEBFE369968CAF9DAFAEAFF6
:1019F000BFAF699786E696E6A6E0B0E465968CAF41
:101A00009DAFAEAFBFAF65975E01BDE4AB0EB11C3D
:101A10008AE999E9A9E1B0E4F50180839183A28381
:101A2000B383DE01A75BBF4F4DEC5CEC6CE270E46E
:101A30004D935D936D937C931397CE018B5B9F4F7A
:101A400040E050E060E470E4FC0140835183628335
:101A500073839E012F5B3F4F43E353E363E570E4E1
:101A6000F9014083518362837383AE01435C5F4F0E
:101A70000F2EF6E6CF2EDC2CEC2CF0E4FF2EF02D12
:101A8000FA01C082D182E282F3820F2EFAE9CF2ED0
:101A9000F9E9DF2EF9E7EF2EF0E4FF2EF02DC9AEC5
:101AA000DAAEEBAEFCAEBE01675C7F4F7F936F9307
:101AB0005F934F933F932F939F938F93BF93AF93D6
:101AC000BF92AF92205F3F4F490140965C01509614
:101AD0006D01B0967F018E010F591F4F2C5E3F4F55
:101AE000445D5F4F6C5C7F4F4C960E94AD0A80E076
:101AF00090E0A8E4B2EC8DAB9EABAFABB8AF80E0AA
:101B000090E0A0EAB1EC89AB9AABABABBCAB80E0A8
:101B100090E0A0E2B1E48DA79EA7AFA7B8AB80E0AC
:101B200090E0A0E2B2E489A79AA7ABA7BCA780E0A7
:101B300090E0ACE8B2E48DA39EA3AFA3B8A780E089
:101B400090E0A8ECB2E489A39AA3ABA3BCA380E085
:101B500090E0A2E0B3E48D8F9E8FAF8FB8A380E0BA
:101B600090E0A0E2B3E4898F9A8FAB8FBC8F80E0C6
:101B700090E0AEE3B3E48D8B9E8BAF8BB88F80E0AB
:101B800090E0ACE5B3E4898B9A8BAB8BBC8B80E0A7
:101B900090E0AAE7B3E48D879E87AF87B88B80E09B
:101BA00090E0ACE8B3E489879A87AB87BC8780E094
:101BB00090E0ABE9B3E48D839E83AF83B887CE0119
:101BC00005969F938F9304969F938F9304969F936C
:101BD0008F9304969F938F9304969F938F939E0168
:101BE000275E3F4F490108965C01DE0191966D0129
:101BF000FE01B5967F01085311092C5E3F4FAE01DF
:101C00004F5C5F4FBE016B5C7F4F885A9F4F0E94B5
:101C1000CF0BAE014B585F4FBE016F587F4FCE01C7
:101C200087589F4F0E94C50F2DEC3CEC4CEC5DE3B8
:101C300068EE73E0CE0187589F4F0E94DF100FB609
:101C4000F894DEBF0FBECDBF882309F406C1BE01E4
:101C50006F587F4FCE0187549F4F0E94B009BE013D
:101C60006F587F4FCE0189549F4F0E94B709C754C8
:101C7000DF4FE881F981C95BD040C954DF4F8881CB
:101C80009981C75BD0408E179F0709F46EC0808092
:101C90009180A280B38020E030E04AE754E4C5019F
:101CA000B4010E94C4166B017C01B501A401CE01F0
:101CB00087589F4F0E945D0F4B015C0120E030E090
:101CC000A9010E94BF1688235CF020E030E040E0CC
:101CD0005FE3C501B4010E94F4140E94D7150AC045
:101CE00020E030E040E05FE3C501B4010E94F3145E
:101CF0000E94D7157C836B8320E030E0A901C701E7
:101D0000B6010E94BF1688235CF020E030E040E07E
:101D10005FE3C701B6010E94F4140E94D7150AC000
:101D200020E030E040E05FE3C701B6010E94F31419
:101D30000E94D7157A8369839E012D5F3F4FAE01C4
:101D40004F5F5F4F68E272E0C3010E94C609C7544B
:101D5000DF4F88819981C95BD0400496C754DF4F1B
:101D600099838883C95BD04082CF0E9446014C0191
:101D7000DC01ED91FC910488F589E02D61E0099585
:101D800020E030E042E068E0CE0187579F4F0E949C
:101D9000830429EA39E041E06DE0CE0182579F4F8C
:101DA0000E94830400E022EA39E04CE251E060E066
:101DB00070E0CE018D569F4F0E9479072BE939E0E4
:101DC00048EB5BE060E070E0CE0184569F4F0E94DC
:101DD0007907CE0184569F4F0E94A9060E9482096E
:101DE0006C010E94DB012E01B5EA4B0E511C9E01D5
:101DF00027583F4F3F932F935C0173018E01045688
:101E00001F4F265E3F4FAE0142575F4FBE016757DF
:101E10007F4FC2010E946D145092470340924603C7
:101E2000C2010E940813C2010E942712C8010E9429
:101E3000F407CE018D569F4F0E94F407CE018257C2
:101E40009F4F0E94E002CE0187579F4F0E94E00201
:101E50000F900F9000E010E007C060E472E0C30153
:101E60000E941B0A0FEF1FEF85E592E0EB969FAFF4
:101E70008EAFEB97CE018B589F4F0E943D0ACE014B
:101E80008F589F4F0E943D0AC801C654DF4F0FB6BE
:101E9000F894DEBF0FBECDBFDF91CF911F910F91A0
:101EA000FF90EF90DF90CF90BF90AF909F908F907A
:101EB0007F906F905F904F900895CF93DF93EC01E8
:101EC0009A01AB016C857D858E859F850E94C41625
:101ED000288539854A855B850E94F414DF91CF916E
:101EE000089525E532E0FC01318320830895809137
:101EF000480381110AC080E090E00E949500CB0168
:101F00000E94001981E08093480308950E94770F92
:101F10000E94FB18BC01990F880B990B0E940F16A9
:101F200020E03EEF4FEF56E40E946515089525E549
:101F300032E0FC013183208360E170E00E94E41410
:101F40000895019749F46F3F7F4F31F40E940506D1
:101F500090934A03809349030895FC018281938101
:101F600008950F931F93CF93DF938B010E94AD0FC2
:101F7000EC01C8010E94AD0F8C179D0708F0CE013F
:101F8000DF91CF911F910F910895CF93DF93EC01D3
:101F9000CB0123E832E0398328837B836A835D8326
:101FA0004C83BA010E94B10F9F838E830E94860FDB
:101FB000688779878A879B870E94860F6C877D87D1
:101FC0008E879F87DF91CF910895FC018281938155
:101FD0000895FC0180819181660F771F860F971FFE
:101FE0000895AF92BF92CF92DF92EF92FF920F933C
:101FF0001F93CF93DF93EC0100E010E0CE010E942D
:10200000E50F0817190738F50E94FB187C01CE016F
:102010000E94E50FBC01C7010E9431177C01B80185
:10202000CE010E94E90F6C01FC01A080B180B701D4
:10203000CE010E94E90FFC0180819181F60191831C
:102040008083B701CE010E94E90FFC01B182A0821A
:102050000F5F1F4FD3CFDF91CF911F910F91FF9053
:10206000EF90DF90CF90BF90AF900895FB0120815B
:102070003181FC01318320830895FB01408151812E
:1020800022813381220F331F240F351FFC0131833E
:1020900020830895FC0180819181660F771F660F70
:1020A000771F860F971F0895EF92FF920F931F934C
:1020B000CF93DF93CDB7DEB7C556D1090FB6F894ED
:1020C000DEBF0FBECDBF6115710541F1FA018C0174
:1020D00085E69E012F5F3F4F7901D901282F1D9280
:1020E0002A95E9F7908121812F939F937F936F9396
:1020F0001F928F93FF92EF920E94DA19D801ED910F
:10210000FC910484F585E02DB701C80109950FB64F
:10211000F894DEBF0FBECDBF81E001C080E0CB5997
:10212000DF4F0FB6F894DEBF0FBECDBFDF91CF916A
:102130001F910F91FF90EF900895FC011182108282
:102140001382128208950F931F93CF93DF93EC01B4
:102150008B01660F771F888199810E940B19009768
:1021600031F0998388831B830A8381E001C080E07A
:10217000DF91CF911F910F9108950F931F93CF93EC
:10218000DF93EC018B010E949D10B801CE010E94EB
:10219000A310DF91CF911F910F910895CF93DF93FB
:1021A000EC01888199810E942618198218821B826D
:1021B0001A82DF91CF9108950E94CE1008952F9238
:1021C0003F924F925F926F927F928F929F92AF92C7
:1021D000BF92CF92DF92EF92FF920F931F93CF9314
:1021E000DF93CDB7DEB762970FB6F894DEBF0FBEB0
:1021F000CDBF6115710509F405C12F87388B498B57
:102200005A8B1B018C0120E030E0A9016F85788991
:1022100089899A890E94601518160CF0F5C0F8019A
:10222000668177816115710509F4F0C0CE010196D0
:102230000E94BD10E12CF12CF80186819781E816EF
:10224000F90660F4B701CE0101960E94E90FFC0186
:10225000F182E082FFEFEF1AFF0AEECF1A861986AD
:1022600089859A858215930508F0C6C0CE0101962E
:102270000E94F10FBE016F5F7F4FCE0107960E9453
:102280003610BE016F5F7F4FCE0105960E943D1054
:102290001B861C861D861E86EF81F8858D819E819A
:1022A0008E179F0709F47FC0A080B180B501F801A7
:1022B000828193810E944A10FC01C080D180E2801B
:1022C000F380B501F801848195810E944A10FC01D8
:1022D00080809180A280B38020E030E0A901C70116
:1022E000B6010E946015811106C0F80180869186B2
:1022F000A286B38652C0B701A601C8010E945D0F35
:102300009B01AC01C501B4010E94F3144B015C01B7
:102310009B01AC016F85788989899A890E94C416CE
:102320002B013C019B01AC01F80160857185828520
:1023300093850E94F414F8016087718782879387E0
:10234000A3019201C701B6010E94C4169B01AC0112
:10235000F80164857585868597850E94F414F801D7
:10236000648775878687978720E030E0A901C501DB
:10237000B4010E94BF16882324F4A501940150588B
:1023800002C0A50194016B857C858D859E850E9488
:10239000F4146B877C878D879E878F819885029642
:1023A00098878F8379CFF8016681778180E090E00C
:1023B0000E940D169B01AC016B857C858D859E85E9
:1023C0000E9465152DEB37E346E855E30E94601542
:1023D000882364F4AE01475F5F4F6BE572E0809144
:1023E000490390914A030E94541006C089859A853A
:1023F00001969A87898734CFCE0101960E94DC101E
:1024000081E005C080E003C080E001C080E062960A
:102410000FB6F894DEBF0FBECDBFDF91CF911F91F5
:102420000F91FF90EF90DF90CF90BF90AF909F9073
:102430008F907F906F905F904F903F902F90089576
:102440006FEF7FEF81E090E00E94A10F0895CF939E
:10245000DF93EC0188819981DC01ED91FC9100848E
:10246000F185E02D60E009958A819B81DC01ED9189
:10247000FC910484F585E02D60E009958C819D81B7
:10248000DC01ED91FC910088F189E02D09958E81A8
:102490009F81DC01ED91FC910088F189E02D099587
:1024A0008A859B85DC01ED91FC910084F185E02D0E
:1024B00060E00995DF91CF910895CF93DF93EC0110
:1024C0008C819D81DC01ED91FC910088F189E02DEA
:1024D00009958A819B81DC01ED91FC910684F78549
:1024E000E02D61E00995DF91CF9108958F929F9241
:1024F000AF92BF92CF92DF92EF92FF920F931F9312
:10250000CF93DF9300D000D0CDB7DEB78C01DC01D4
:102510001E968D919C911F97DC01ED91FC91068494
:10252000F785E02D62E009954B015C0120E030E089
:102530004AE754E40E94C4166B017C01F8018089CB
:102540009189DC01ED91FC910480F581E02DB501CC
:10255000A40109954B015C0120E030E0A9010E9433
:10256000BF1688235CF020E030E040E05FE3C50167
:10257000B4010E94F4140E94D7150AC020E030E094
:1025800040E05FE3C501B4010E94F3140E94D71537
:102590007C836B8320E030E0A901C701B6010E9473
:1025A000BF1688235CF020E030E040E05FE3C70125
:1025B000B6010E94F4140E94D7150AC020E030E052
:1025C00040E05FE3C701B6010E94F3140E94D715F3
:1025D0007A8369839E012D5F3F4FAE014F5F5F4F4E
:1025E00069E872E0F801808591850E94C6090F9024
:1025F0000F900F900F90DF91CF911F910F91FF904F
:10260000EF90DF90CF90BF90AF909F908F90089504
:10261000EC0162EC72E0888599850E941B0A8A852C
:102620009B85DC01ED91FC910484F585E02D0995F5
:10263000F6CF8F929F92AF92BF92CF92DF92EF929E
:10264000FF920F931F93CF93DF9300D000D0CDB7AD
:10265000DEB78C0167ED72E0DC0118968D919C91DC
:1026600019970E941B0AF80186859785DC01ED9178
:10267000FC910684F785E02D62E009954B015C0131
:1026800020E030E04AE754E40E94C4166B017C016C
:10269000F80180899189DC01ED91FC910480F5813C
:1026A000E02DB501A40109954B015C0120E030E06B
:1026B000A9010E94BF1688235CF020E030E040E0D2
:1026C0005FE3C501B4010E94F4140E94D7150AC04B
:1026D00020E030E040E05FE3C501B4010E94F31464
:1026E0000E94D7157C836B8320E030E0A901C701ED
:1026F000B6010E94BF1688235CF020E030E040E085
:102700005FE3C701B6010E94F4140E94D7150AC006
:1027100020E030E040E05FE3C701B6010E94F3141F
:102720000E94D7157A8369839E012D5F3F4FAE01CA
:102730004F5F5F4F69E872E0F801808591850E94E4
:10274000C609D80116968D919C911797DC01ED91E1
:10275000FC910488F589E02D09950F900F900F905A
:102760000F90DF91CF911F910F91FF90EF90DF902D
:10277000CF90BF90AF909F908F900895CF93DF93AD
:10278000EC018A819B81DC01ED91FC910684F78547
:10279000E02D60E009958C819D81DC01ED91FC913B
:1027A0000684F785E02D09958A819B81DC01ED91F6
:1027B000FC910680F781E02D0995882319F0CE0160
:1027C0000E941913DF91CF910895AF92BF92DF92CB
:1027D000EF92FF920F931F93CF93DF93EC017B0156
:1027E0008A01E881F9810284F385E02D41E00995B1
:1027F000D82E882359F0E881F9810680F781E02DF1
:10280000CE010995882321F0D12C02C0DD24D39478
:10281000D11022C0F8011082D11020C0AD2CB12CF3
:10282000B7016A0D7B1DE881F9810684F785E02DEB
:10283000CE01099590E0AA0CBB1CAA0CBB1CAA0CEB
:10284000BB1C02C0880F991FAA94E2F7F80190817F
:10285000892B8083D394E0CF80E001C081E0DF91B9
:10286000CF911F910F91FF90EF90DF90BF90AF90AD
:102870000895CF93DF931F92CDB7DEB71982AE01D3
:102880004F5F5F4F60E070E0FC01848595850E949A
:10289000E513882329F0998181E0913009F080E0E7
:1028A0000F90DF91CF910895CF93DF93EC010E94B9
:1028B0003914882379F08E819F81DC01ED91FC91A0
:1028C0000684F785E02D099568EE72E08885998584
:1028D0000E941B0ADF91CF9108956F927F928F9291
:1028E0009F92AF92BF92CF92DF92EF92FF920F939F
:1028F0001F93CF93DF93CDB7DEB73C01CA01D3015D
:1029000011967C936E9313965C934E931297159643
:102910003C932E93149717961C930E931697199623
:10292000FC92EE9218971B96DC92CE921A971D9607
:10293000BC92AE921C971F969C928E921E972989EC
:102940003A8951963C932E935097DA01ED91FC9180
:102950000484F585E02D61E00995F301808591857A
:10296000DC01ED91FC910284F385E02D61E0099595
:10297000F30182859385DC01ED91FC910084F18562
:10298000E02D61E00995F30184859585DC01ED91E9
:10299000FC910084F185E02D61E00995C3010E945E
:1029A0005414DF91CF911F910F91FF90EF90DF9022
:1029B000CF90BF90AF909F908F907F906F90089531
:1029C00078940895F894089508950895FC0181E09D
:1029D00090E02081222311F080E090E0089521E032
:1029E000FC01208308955058BB27AA270E940B158D
:1029F0000C9485160E94771638F00E947E1620F0FF
:102A000039F49F3F19F426F40C9474160EF4E095F3
:102A1000E7FB0C946E16E92F0E94961658F3BA172E
:102A2000620773078407950720F079F4A6F50C94E4
:102A3000B8160EF4E0950B2EBA2FA02D0B01B9019C
:102A400090010C01CA01A0011124FF27591B99F024
:102A5000593F50F4503E68F11A16F040A22F232F30
:102A6000342F4427585FF3CF469537952795A79580
:102A7000F0405395C9F77EF41F16BA0B620B730B27
:102A8000840BBAF09150A1F0FF0FBB1F661F771F98
:102A9000881FC2F70EC0BA0F621F731F841F48F44D
:102AA000879577956795B795F7959E3F08F0B0CFD6
:102AB0009395880F08F09927EE0F979587950895BD
:102AC0000E944A1608F481E008950E9479150C943A
:102AD00085160E947E1658F00E94771640F029F461
:102AE0005F3F29F00C946E1651110C94B9160C949A
:102AF00074160E94961668F39923B1F3552391F347
:102B0000951B550BBB27AA2762177307840738F05C
:102B10009F5F5F4F220F331F441FAA1FA9F335D0B9
:102B20000E2E3AF0E0E832D091505040E695001C6D
:102B3000CAF72BD0FE2F29D0660F771F881FBB1F27
:102B4000261737074807AB07B0E809F0BB0B802D05
:102B5000BF01FF2793585F4F3AF09E3F510578F031
:102B60000C946E160C94B9165F3FE4F3983ED4F3C0
:102B7000869577956795B795F7959F5FC9F7880F05
:102B8000911D9695879597F90895E1E0660F771F57
:102B9000881FBB1F621773078407BA0720F0621BE8
:102BA000730B840BBA0BEE1F88F7E09508950E9413
:102BB000DE156894B1110C94B91608950E949E1602
:102BC00088F09F5798F0B92F9927B751B0F0E1F0EE
:102BD000660F771F881F991F1AF0BA95C9F714C09E
:102BE000B13091F00E94B816B1E008950C94B81677
:102BF000672F782F8827B85F39F0B93FCCF38695D7
:102C000077956795B395D9F73EF490958095709533
:102C100061957F4F8F4F9F4F0895E89409C097FBB0
:102C20003EF490958095709561957F4F8F4F9F4FA3
:102C30009923A9F0F92F96E9BB279395F6958795E7
:102C400077956795B795F111F8CFFAF4BB0F11F4AA
:102C500060FF1BC06F5F7F4F8F4F9F4F16C0882351
:102C600011F096E911C0772321F09EE8872F762F87
:102C700005C0662371F096E8862F70E060E02AF0C8
:102C80009A95660F771F881FDAF7880F96958795B4
:102C900097F90895990F0008550FAA0BE0E8FEEF89
:102CA00016161706E807F907C0F012161306E40710
:102CB000F50798F0621B730B840B950B39F40A2609
:102CC00061F0232B242B252B21F408950A2609F4E7
:102CD000A140A6958FEF811D811D089597F99F67EB
:102CE00080E870E060E008959FEF80EC0895002494
:102CF0000A941616170618060906089500240A9461
:102D000012161306140605060895092E0394000CE6
:102D100011F4882352F0BB0F40F4BF2B11F460FF75
:102D200004C06F5F7F4F8F4F9F4F089557FD90589E
:102D3000440F551F59F05F3F71F04795880F97FB7F
:102D4000991F61F09F3F79F0879508951216130639
:102D50001406551FF2CF4695F1DF08C01616170668
:102D60001806991FF1CF869571056105089408959D
:102D7000E894BB2766277727CB0197F908950E942F
:102D80004A1608F48FEF08950E94D7160C94851602
:102D90000E94771638F00E947E1620F0952311F0DD
:102DA0000C946E160C94741611240C94B9160E948F
:102DB000961670F3959FC1F3950F50E0551F629FD3
:102DC000F001729FBB27F00DB11D639FAA27F00D84
:102DD000B11DAA1F649F6627B00DA11D661F829FAB
:102DE0002227B00DA11D621F739FB00DA11D621F90
:102DF000839FA00D611D221F749F3327A00D611DAD
:102E0000231F849F600D211D822F762F6A2F11248E
:102E10009F5750409AF0F1F088234AF0EE0FFF1FC1
:102E2000BB1F661F771F881F91505040A9F79E3F18
:102E3000510580F00C946E160C94B9165F3FE4F3C4
:102E4000983ED4F3869577956795B795F795E7956E
:102E50009F5FC1F7FE2B880F911D9695879597F977
:102E60000895AA1BBB1B51E107C0AA1FBB1FA617D1
:102E7000B70710F0A61BB70B881F991F5A95A9F723
:102E800080959095BC01CD0108950F93083090F086
:102E9000982F872F762F652F542F432F322F2227DD
:102EA0000850F4CF220F331F441F551F661F771F92
:102EB000881F991F0A95B2F70F91089597FB10F894
:102EC000169400080F93083098F00850232F342FE1
:102ED000452F562F672F782F892F902DF4CF0594EB
:102EE0009795879577956795579547953795279542
:102EF0000A95AAF70F9108950024A7FD00942A17B8
:102F00003005400550056005700580059005089561
:102F1000EE0FFF1F0590F491E02D09940F931F937E
:102F2000CF93DF938230910510F482E090E0E0913E
:102F30004D03F0914E0320E030E0A0E0B0E0309788
:102F400019F1408151810281138148175907C8F056
:102F50008417950769F4109731F012960C93129725
:102F600013961C9327C000934D0310934E0322C069
:102F70002115310519F04217530718F49A01BD01C4
:102F8000EF01DF01F801DBCF21153105F9F0281B36
:102F9000390B2430310580F48A819B8161157105DC
:102FA00021F0FB019383828304C090934E038093AE
:102FB0004D03FE01329644C0FE01E20FF31F8193E0
:102FC000919322503109398328833AC020914B03D1
:102FD00030914C03232B41F42091020130910301E5
:102FE00030934C0320934B03209100013091010159
:102FF0002115310541F42DB73EB7409104015091A0
:103000000501241B350BE0914B03F0914C03E217B3
:10301000F307A0F42E1B3F0B2817390778F0AC01FB
:103020004E5F5F4F2417350748F04E0F5F1F5093D8
:103030004C0340934B038193919302C0E0E0F0E096
:10304000CF01DF91CF911F910F910895CF93DF931F
:10305000009709F481C0FC01329713821282A0917B
:103060004D03B0914E03109781F420813181820F7E
:10307000931F20914B0330914C032817390751F5CA
:10308000F0934C03E0934B0367C0ED0120E030E088
:10309000CE17DF0740F44A815B819E01411551053F
:1030A000F1F0EA01F5CFD383C28340815181840FCF
:1030B000951FC817D90759F488819981840F951FE6
:1030C0000296918380838A819B81938382832115D9
:1030D000310529F4F0934E03E0934D033DC0E9011F
:1030E000FB83EA8349915991C40FD51FEC17FD0763
:1030F00061F480819181840F951F0296E901998383
:103100008883828193819B838A83E0E0F0E012963A
:103110008D919C911397009719F0FD01DC01F7CF79
:103120008D919C9111979D012E5F3F4F820F931FB0
:1031300020914B0330914C032817390769F43097DD
:1031400029F410924E0310924D0302C01382128292
:10315000B0934C03A0934B03DF91CF9108958F92CE
:103160009F92AF92BF92CF92DF92EF92FF92CF9356
:10317000DF93EC01688179818A819B8161157105FA
:103180008105910521F464E279ED8BE597E02DE16D
:1031900033EF41E050E00E949B1C49015A019B0122
:1031A000AC01A7EAB1E40E94BA1C6B017C01ACEE51
:1031B000B4EFA50194010E94C81CDC01CB018C0D69
:1031C0009D1DAE1DBF1DB7FF03C00197A109B048EB
:1031D00088839983AA83BB839F77DF91CF91FF90E8
:1031E000EF90DF90CF90BF90AF909F908F90089519
:1031F0000E94AF18089586E091E00E94AF180895EC
:10320000A0E0B0E08093060190930701A09308012D
:10321000B09309010895A0E0B0E0E1E1F9E10C9478
:10322000D11CEC01009721F4CB010E948E17B4C091
:10323000FC01E60FF71F9C0122503109E217F3074A
:1032400008F4A8C0D9010D911C9111970617170712
:10325000B0F00530110508F49BC0C801049786172B
:10326000970708F495C002501109061B170B01932C
:1032700011936D937C93CF010E94261889C05B0146
:10328000A01AB10A4C01800E911EA0914D03B0917D
:103290004E03612C712CE12CF12C109709F446C0DF
:1032A0008D919C911197A815B905B1F56C0142E07B
:1032B000C40ED11CCA14DB0478F14C018A189B0897
:1032C000640142E0C40ED11C1296BC901297139672
:1032D000AC91B5E0CB16D10440F0B282A3839182C9
:1032E0008082D9016D937C9309C00E5F1F4F800FC0
:1032F000911FF90191838083EB2DFA2FE114F104E2
:1033000031F0D7011396FC93EE93129741C0F093DE
:103310004E03E0934D033CC06816790608F43C0167
:103320007D0112960D90BC91A02DB7CF80914B03DB
:1033300090914C0388169906E1F466167706C8F456
:103340008091000190910101009741F48DB79EB7E3
:103350004091040150910501841B950BE817F90772
:10336000C8F4F0934C03E0934B03F901718360833D
:103370000FC0CB010E948E177C01009759F0A80165
:10338000BE010E94D119CE010E942618C70104C0B7
:10339000CE0102C080E090E0CDB7DEB7EEE00C9445
:1033A000ED1CFB01DC0102C001900D924150504028
:1033B000D8F70895AEE0B0E0E0EEF9E10C94DB1C44
:1033C0000D891E898F89988D26E02C831A830983A5
:1033D00097FF02C080E090E801979E838D83AE0145
:1033E000455E5F4F698D7A8DCE0101960E940A1A63
:1033F0004D815E8157FD0AC02F81388542175307E2
:103400000CF49A01F801E20FF31F10822E96E4E00B
:103410000C94F71CABE0B0E0E0E1FAE10C94CD1CB9
:103420006C017B018A01FC0117821682838181FF76
:10343000CCC1CE0101963C01F6019381F70193FDC9
:10344000859193FF81917F01882309F4BAC1853268
:1034500039F493FD859193FF81917F01853229F4A1
:10346000B60190E00E94011CE7CF912C212C312C59
:10347000FFE1F315D8F08B3279F038F4803279F02F
:103480008332A1F4232D20611DC08D3261F0803381
:1034900069F4232D216016C0832D8260382EE32D20
:1034A000E4603E2E2AC0F32DF8601DC037FC2DC00D
:1034B00020ED280F2A3040F08E32B9F436FC81C15D
:1034C000232D2064322E19C036FE06C08AE0989E55
:1034D000200D1124922E11C0EAE02E9E200D112401
:1034E000222EF32DF0623F2E08C08C3621F4832D5E
:1034F0008068382E02C0883641F4F70193FD85912B
:1035000093FF81917F018111B3CF982F9F7D9554B7
:10351000933028F40C5F1F4F9FE399830DC08336CF
:1035200031F0833771F0833509F059C021C0F801BB
:10353000808189830E5F1F4F88248394912C5301CF
:1035400013C02801F2E04F0E511CF801A080B18099
:1035500036FE03C0692D70E002C06FEF7FEFC5013A
:103560000E94F61B4C018201F32DFF773F2E16C0FF
:10357000280122E0420E511CF801A080B18036FEE5
:1035800003C0692D70E002C06FEF7FEFC5010E949C
:10359000EB1B4C01F32DF0683F2E820133FC1BC066
:1035A000822D90E088169906B0F4B60180E290E092
:1035B0000E94011C2A94F4CFF50137FC859137FE57
:1035C00081915F01B60190E00E94011C21102A94B4
:1035D00021E0821A91088114910471F7E8C08436C1
:1035E00011F0893641F5F80137FE07C0608171811D
:1035F000828193810C5F1F4F08C060817181072E0B
:10360000000C880B990B0E5F1F4FF32DFF763F2E9A
:1036100097FF09C090958095709561957F4F8F4F6A
:103620009F4FF0683F2E2AE030E0A3010E943D1C2E
:10363000882E861845C0853731F4232D2F7EB22E73
:103640002AE030E025C0932D997FB92E8F36C1F046
:1036500018F4883579F0B5C0803719F0883721F033
:10366000B0C0E92FE061BE2EB4FE0DC0FB2DF460AA
:10367000BF2E09C034FE0AC0292F2660B22E06C014
:1036800028E030E005C020E130E002C020E132E077
:10369000F801B7FE07C060817181828193810C5F60
:1036A0001F4F06C06081718180E090E00E5F1F4F68
:1036B000A3010E943D1C882E8618FB2DFF773F2E0C
:1036C00036FE0DC0232D2E7FA22E891458F434FE11
:1036D0000BC032FC09C0832D8E7EA82E05C0B82CED
:1036E000A32C03C0B82C01C0B92CA4FE0FC0FE014E
:1036F000E80DF11D8081803321F49A2D997EA92E49
:1037000009C0A2FE06C0B394B39404C08A2D867883
:1037100009F0B394A3FC11C0A0FE06C0B21488F453
:10372000280C922C9B180EC0B21460F4B60180E2F3
:1037300090E00E94011CB394F7CFB21418F42B1838
:1037400002C0982C212CA4FE10C0B60180E390E0AA
:103750000E94011CA2FE17C0A1FC03C088E790E0F4
:1037600002C088E590E0B6010CC08A2D867859F039
:10377000A1FE02C08BE201C080E2A7FC8DE2B6018F
:1037800090E00E94011C891438F4B60180E390E0B7
:103790000E94011C9A94F7CF8A94F301E80DF11D61
:1037A0008081B60190E00E94011C8110F5CF22209B
:1037B00009F442CEB60180E290E00E94011C2A94F6
:1037C000F6CFF6018681978102C08FEF9FEF2B968F
:1037D000E2E10C94E91CFC0105906150704001107D
:1037E000D8F7809590958E0F9F1F0895FC0161502A
:1037F000704001900110D8F7809590958E0F9F1F13
:1038000008950F931F93CF93DF93FB01238121FD35
:1038100003C08FEF9FEF2CC022FF16C04681578157
:10382000248135814217530744F4A081B1819D0161
:103830002F5F3F4F318320838C93268137812F5F09
:103840003F4F3783268314C08B01EC01FB010084BA
:10385000F185E02D0995892BE1F6D80116968D9119
:103860009C911797019617969C938E931697CE016D
:10387000DF91CF911F910F910895FA01AA27283067
:1038800051F1203181F1E8946F936E7F6E5F7F4F2D
:103890008F4F9F4FAF4FB1E03ED0B4E03CD0670FA9
:1038A000781F891F9A1FA11D680F791F8A1F911DFC
:1038B000A11D6A0F711D811D911DA11D20D009F44C
:1038C00068943F912AE0269F11243019305D31938E
:1038D000DEF6CF010895462F4770405D4193B3E077
:1038E0000FD0C9F7F6CF462F4F70405D4A3318F01E
:1038F000495D31FD4052419302D0A9F7EACFB4E0CF
:10390000A6959795879577956795BA95C9F7009786
:103910006105710508959B01AC010A2E0694579527
:10392000479537952795BA95C9F7620F731F841F7E
:10393000951FA01D0895052E97FB1EF400940E946C
:10394000B21C57FD07D00E94041D07FC03D04EF4A3
:103950000C94B21C50954095309521953F4F4F4F98
:103960005F4F089590958095709561957F4F8F4F2B
:103970009F4F08950E94261DA59F900DB49F900D06
:10398000A49F800D911D11240895B7FF0C94BA1CBB
:103990000E94BA1C821B930B08952F923F924F9264
:1039A0005F926F927F928F929F92AF92BF92CF92CF
:1039B000DF92EF92FF920F931F93CF93DF93CDB7D8
:1039C000DEB7CA1BDB0B0FB6F894DEBF0FBECDBF50
:1039D00009942A88398848885F846E847D848C8421
:1039E0009B84AA84B984C884DF80EE80FD800C812A
:1039F0001B81AA81B981CE0FD11D0FB6F894DEBF0D
:103A00000FBECDBFED010895A1E21A2EAA1BBB1B6C
:103A1000FD010DC0AA1FBB1FEE1FFF1FA217B3079A
:103A2000E407F50720F0A21BB30BE40BF50B661FB0
:103A3000771F881F991F1A9469F760957095809574
:103A400090959B01AC01BD01CF010895A29FB001EB
:103A5000B39FC001A39F700D811D1124911DB29FC2
:103A6000700D811D1124911D08950E94630010E0C6
:103A7000C7E3D0E004C0FE010E9488172196C93335
:083A8000D107C9F7F894FFCF4C
:103A8800000053032000010000002A002B00290039
:103A98006D0002022700280026006C0001012400A6
:103AA800250023006B00000000000000000000005B
:103AB800E514E514E514E514E514E514E514E51436
:103AC800E514000000002C013201AF00B100B40081
:103AD800B9000D011B012401260129010000000085
:103AE80000000000E514E514E514E514E514E514F8
:103AF8000000000097019D01660168016B016E01DD
:103B0800A70176010000000000000000E514E5149C
:103B1800E514E514E514E51400000000E00255037F
:103B2800F401FD0117024A02960265020000000036
:103B380000000000E514E514E514E514E5140000A0
:103B48000000D805DE05B405B905BB05BE05C105ED
:103B58000000000000000000E514E514E514E51479
:103B6800E514E514E514E514E51400000000F40775
:103B780013081E0627062A0652067406A9066806B2
:103B8800D106DB060000000000000000E514E51483
:103B9800E514E514E5140000000018091E090F09D2
:103BA800110931091409280978203D202564206D60
:103BB800562C2079726566203D20256420430A0032
:103BC800547261696E696E67206661696C65642EFE
:103BD800000000000000000000E514547261696EE6
:103BE800696E672066696E697368656420616674CA
:103BF80065722025642065706F636873210A000070
:103C0800000000710F970F5D0F5265616C20696E9F
:103C180070757420766F6C746167653A202564202E
:103C28006D562C20707265646963746564207465D0
:103C38006D70657261747572653A20256420432140
:103C48000A0052756E6E696E672074686520737914
:103C58007374656D210A00427574746F6E207072FA
:103C68006573736564210A00546F67676C65207417
:103C7800696D657220656E61626C6564210A000079
:00000001FF
